{
  "_format": "hh-sol-artifact-1",
  "contractName": "PoolToken",
  "sourceName": "contracts/implementation/PoolToken.sol",
  "abi": [
    {
      "inputs": [],
      "stateMutability": "nonpayable",
      "type": "constructor"
    },
    {
      "anonymous": false,
      "inputs": [
        {
          "indexed": true,
          "internalType": "address",
          "name": "owner",
          "type": "address"
        },
        {
          "indexed": true,
          "internalType": "address",
          "name": "spender",
          "type": "address"
        },
        {
          "indexed": false,
          "internalType": "uint256",
          "name": "value",
          "type": "uint256"
        }
      ],
      "name": "Approval",
      "type": "event"
    },
    {
      "anonymous": false,
      "inputs": [
        {
          "indexed": true,
          "internalType": "bytes32",
          "name": "role",
          "type": "bytes32"
        },
        {
          "indexed": true,
          "internalType": "bytes32",
          "name": "previousAdminRole",
          "type": "bytes32"
        },
        {
          "indexed": true,
          "internalType": "bytes32",
          "name": "newAdminRole",
          "type": "bytes32"
        }
      ],
      "name": "RoleAdminChanged",
      "type": "event"
    },
    {
      "anonymous": false,
      "inputs": [
        {
          "indexed": true,
          "internalType": "bytes32",
          "name": "role",
          "type": "bytes32"
        },
        {
          "indexed": true,
          "internalType": "address",
          "name": "account",
          "type": "address"
        },
        {
          "indexed": true,
          "internalType": "address",
          "name": "sender",
          "type": "address"
        }
      ],
      "name": "RoleGranted",
      "type": "event"
    },
    {
      "anonymous": false,
      "inputs": [
        {
          "indexed": true,
          "internalType": "bytes32",
          "name": "role",
          "type": "bytes32"
        },
        {
          "indexed": true,
          "internalType": "address",
          "name": "account",
          "type": "address"
        },
        {
          "indexed": true,
          "internalType": "address",
          "name": "sender",
          "type": "address"
        }
      ],
      "name": "RoleRevoked",
      "type": "event"
    },
    {
      "anonymous": false,
      "inputs": [
        {
          "indexed": true,
          "internalType": "address",
          "name": "from",
          "type": "address"
        },
        {
          "indexed": true,
          "internalType": "address",
          "name": "to",
          "type": "address"
        },
        {
          "indexed": false,
          "internalType": "uint256",
          "name": "value",
          "type": "uint256"
        }
      ],
      "name": "Transfer",
      "type": "event"
    },
    {
      "inputs": [],
      "name": "DEFAULT_ADMIN_ROLE",
      "outputs": [
        {
          "internalType": "bytes32",
          "name": "",
          "type": "bytes32"
        }
      ],
      "stateMutability": "view",
      "type": "function"
    },
    {
      "inputs": [],
      "name": "POOL",
      "outputs": [
        {
          "internalType": "bytes32",
          "name": "",
          "type": "bytes32"
        }
      ],
      "stateMutability": "view",
      "type": "function"
    },
    {
      "inputs": [
        {
          "internalType": "address",
          "name": "owner",
          "type": "address"
        },
        {
          "internalType": "address",
          "name": "spender",
          "type": "address"
        }
      ],
      "name": "allowance",
      "outputs": [
        {
          "internalType": "uint256",
          "name": "",
          "type": "uint256"
        }
      ],
      "stateMutability": "view",
      "type": "function"
    },
    {
      "inputs": [
        {
          "internalType": "address",
          "name": "spender",
          "type": "address"
        },
        {
          "internalType": "uint256",
          "name": "amount",
          "type": "uint256"
        }
      ],
      "name": "approve",
      "outputs": [
        {
          "internalType": "bool",
          "name": "",
          "type": "bool"
        }
      ],
      "stateMutability": "nonpayable",
      "type": "function"
    },
    {
      "inputs": [
        {
          "internalType": "address",
          "name": "account",
          "type": "address"
        }
      ],
      "name": "balanceOf",
      "outputs": [
        {
          "internalType": "uint256",
          "name": "",
          "type": "uint256"
        }
      ],
      "stateMutability": "view",
      "type": "function"
    },
    {
      "inputs": [
        {
          "internalType": "uint256",
          "name": "amount",
          "type": "uint256"
        },
        {
          "internalType": "address",
          "name": "account",
          "type": "address"
        }
      ],
      "name": "burn",
      "outputs": [
        {
          "internalType": "bool",
          "name": "",
          "type": "bool"
        }
      ],
      "stateMutability": "nonpayable",
      "type": "function"
    },
    {
      "inputs": [],
      "name": "decimals",
      "outputs": [
        {
          "internalType": "uint8",
          "name": "",
          "type": "uint8"
        }
      ],
      "stateMutability": "view",
      "type": "function"
    },
    {
      "inputs": [
        {
          "internalType": "address",
          "name": "spender",
          "type": "address"
        },
        {
          "internalType": "uint256",
          "name": "subtractedValue",
          "type": "uint256"
        }
      ],
      "name": "decreaseAllowance",
      "outputs": [
        {
          "internalType": "bool",
          "name": "",
          "type": "bool"
        }
      ],
      "stateMutability": "nonpayable",
      "type": "function"
    },
    {
      "inputs": [
        {
          "internalType": "bytes32",
          "name": "role",
          "type": "bytes32"
        }
      ],
      "name": "getRoleAdmin",
      "outputs": [
        {
          "internalType": "bytes32",
          "name": "",
          "type": "bytes32"
        }
      ],
      "stateMutability": "view",
      "type": "function"
    },
    {
      "inputs": [
        {
          "internalType": "bytes32",
          "name": "role",
          "type": "bytes32"
        },
        {
          "internalType": "uint256",
          "name": "index",
          "type": "uint256"
        }
      ],
      "name": "getRoleMember",
      "outputs": [
        {
          "internalType": "address",
          "name": "",
          "type": "address"
        }
      ],
      "stateMutability": "view",
      "type": "function"
    },
    {
      "inputs": [
        {
          "internalType": "bytes32",
          "name": "role",
          "type": "bytes32"
        }
      ],
      "name": "getRoleMemberCount",
      "outputs": [
        {
          "internalType": "uint256",
          "name": "",
          "type": "uint256"
        }
      ],
      "stateMutability": "view",
      "type": "function"
    },
    {
      "inputs": [
        {
          "internalType": "bytes32",
          "name": "role",
          "type": "bytes32"
        },
        {
          "internalType": "address",
          "name": "account",
          "type": "address"
        }
      ],
      "name": "grantRole",
      "outputs": [],
      "stateMutability": "nonpayable",
      "type": "function"
    },
    {
      "inputs": [
        {
          "internalType": "bytes32",
          "name": "role",
          "type": "bytes32"
        },
        {
          "internalType": "address",
          "name": "account",
          "type": "address"
        }
      ],
      "name": "hasRole",
      "outputs": [
        {
          "internalType": "bool",
          "name": "",
          "type": "bool"
        }
      ],
      "stateMutability": "view",
      "type": "function"
    },
    {
      "inputs": [
        {
          "internalType": "address",
          "name": "spender",
          "type": "address"
        },
        {
          "internalType": "uint256",
          "name": "addedValue",
          "type": "uint256"
        }
      ],
      "name": "increaseAllowance",
      "outputs": [
        {
          "internalType": "bool",
          "name": "",
          "type": "bool"
        }
      ],
      "stateMutability": "nonpayable",
      "type": "function"
    },
    {
      "inputs": [
        {
          "internalType": "address",
          "name": "_pool",
          "type": "address"
        },
        {
          "internalType": "string",
          "name": "name_",
          "type": "string"
        },
        {
          "internalType": "string",
          "name": "symbol_",
          "type": "string"
        }
      ],
      "name": "initialize",
      "outputs": [],
      "stateMutability": "nonpayable",
      "type": "function"
    },
    {
      "inputs": [
        {
          "internalType": "uint256",
          "name": "amount",
          "type": "uint256"
        },
        {
          "internalType": "address",
          "name": "account",
          "type": "address"
        }
      ],
      "name": "mint",
      "outputs": [
        {
          "internalType": "bool",
          "name": "",
          "type": "bool"
        }
      ],
      "stateMutability": "nonpayable",
      "type": "function"
    },
    {
      "inputs": [],
      "name": "name",
      "outputs": [
        {
          "internalType": "string",
          "name": "",
          "type": "string"
        }
      ],
      "stateMutability": "view",
      "type": "function"
    },
    {
      "inputs": [
        {
          "internalType": "bytes32",
          "name": "role",
          "type": "bytes32"
        },
        {
          "internalType": "address",
          "name": "account",
          "type": "address"
        }
      ],
      "name": "renounceRole",
      "outputs": [],
      "stateMutability": "nonpayable",
      "type": "function"
    },
    {
      "inputs": [
        {
          "internalType": "bytes32",
          "name": "role",
          "type": "bytes32"
        },
        {
          "internalType": "address",
          "name": "account",
          "type": "address"
        }
      ],
      "name": "revokeRole",
      "outputs": [],
      "stateMutability": "nonpayable",
      "type": "function"
    },
    {
      "inputs": [],
      "name": "symbol",
      "outputs": [
        {
          "internalType": "string",
          "name": "",
          "type": "string"
        }
      ],
      "stateMutability": "view",
      "type": "function"
    },
    {
      "inputs": [],
      "name": "totalSupply",
      "outputs": [
        {
          "internalType": "uint256",
          "name": "",
          "type": "uint256"
        }
      ],
      "stateMutability": "view",
      "type": "function"
    },
    {
      "inputs": [
        {
          "internalType": "address",
          "name": "recipient",
          "type": "address"
        },
        {
          "internalType": "uint256",
          "name": "amount",
          "type": "uint256"
        }
      ],
      "name": "transfer",
      "outputs": [
        {
          "internalType": "bool",
          "name": "",
          "type": "bool"
        }
      ],
      "stateMutability": "nonpayable",
      "type": "function"
    },
    {
      "inputs": [
        {
          "internalType": "address",
          "name": "sender",
          "type": "address"
        },
        {
          "internalType": "address",
          "name": "recipient",
          "type": "address"
        },
        {
          "internalType": "uint256",
          "name": "amount",
          "type": "uint256"
        }
      ],
      "name": "transferFrom",
      "outputs": [
        {
          "internalType": "bool",
          "name": "",
          "type": "bool"
        }
      ],
      "stateMutability": "nonpayable",
      "type": "function"
    }
  ],
  "bytecode": "0x60806040523480156200001157600080fd5b506040518060400160405280600a81526020017f424153455f544f4b454e000000000000000000000000000000000000000000008152506040518060400160405280600481526020017f4241534500000000000000000000000000000000000000000000000000000000815250816005908051906020019062000096929190620000d4565b508060069080519060200190620000af929190620000d4565b506012600760006101000a81548160ff021916908360ff16021790555050506200018a565b828054600181600116156101000203166002900490600052602060002090601f0160209004810192826200010c576000855562000158565b82601f106200012757805160ff191683800117855562000158565b8280016001018555821562000158579182015b82811115620001575782518255916020019190600101906200013a565b5b5090506200016791906200016b565b5090565b5b80821115620001865760008160009055506001016200016c565b5090565b61250e806200019a6000396000f3fe608060405234801561001057600080fd5b506004361061014d5760003560e01c80639010d07c116100c3578063a457c2d71161007c578063a457c2d7146103da578063a9059cbb1461040a578063ca15c8731461043a578063d547741f1461046a578063dd62ed3e14610486578063fcd3533c146104b65761014d565b80639010d07c146102f2578063906571471461032257806391d148541461033e57806394bf804d1461036e57806395d89b411461039e578063a217fddf146103bc5761014d565b80632f2ff15d116101155780632f2ff15d1461021e578063313ce5671461023a57806336568abe14610258578063395093511461027457806370a08231146102a45780637535d246146102d45761014d565b806306fdde0314610152578063095ea7b31461017057806318160ddd146101a057806323b872dd146101be578063248a9ca3146101ee575b600080fd5b61015a6104e6565b60405161016791906120e8565b60405180910390f35b61018a60048036038101906101859190611efa565b610588565b60405161019791906120b2565b60405180910390f35b6101a86105a6565b6040516101b5919061210a565b60405180910390f35b6101d860048036038101906101d39190611e2c565b6105b0565b6040516101e591906120b2565b60405180910390f35b61020860048036038101906102039190611f36565b610689565b60405161021591906120cd565b60405180910390f35b61023860048036038101906102339190611f5f565b6106a8565b005b610242610731565b60405161024f9190612125565b60405180910390f35b610272600480360381019061026d9190611f5f565b610748565b005b61028e60048036038101906102899190611efa565b6107e1565b60405161029b91906120b2565b60405180910390f35b6102be60048036038101906102b99190611dc7565b610894565b6040516102cb919061210a565b60405180910390f35b6102dc6108dd565b6040516102e991906120cd565b60405180910390f35b61030c60048036038101906103079190611f9b565b610901565b6040516103199190612097565b60405180910390f35b61033c60048036038101906103379190611e7b565b610932565b005b61035860048036038101906103539190611f5f565b610aa5565b60405161036591906120b2565b60405180910390f35b61038860048036038101906103839190611fd7565b610ad6565b60405161039591906120b2565b60405180910390f35b6103a6610b1f565b6040516103b391906120e8565b60405180910390f35b6103c4610bc1565b6040516103d191906120cd565b60405180910390f35b6103f460048036038101906103ef9190611efa565b610bc8565b60405161040191906120b2565b60405180910390f35b610424600480360381019061041f9190611efa565b610c95565b60405161043191906120b2565b60405180910390f35b610454600480360381019061044f9190611f36565b610cb3565b604051610461919061210a565b60405180910390f35b610484600480360381019061047f9190611f5f565b610cd9565b005b6104a0600480360381019061049b9190611df0565b610d62565b6040516104ad919061210a565b60405180910390f35b6104d060048036038101906104cb9190611fd7565b610de9565b6040516104dd91906120b2565b60405180910390f35b606060058054600181600116156101000203166002900480601f01602080910402602001604051908101604052809291908181526020018280546001816001161561010002031660029004801561057e5780601f106105535761010080835404028352916020019161057e565b820191906000526020600020905b81548152906001019060200180831161056157829003601f168201915b5050505050905090565b600061059c610595610e32565b8484610e3a565b6001905092915050565b6000600454905090565b60006105bd848484611031565b61067e846105c9610e32565b610679856040518060600160405280602881526020016123f360289139600360008b73ffffffffffffffffffffffffffffffffffffffff1673ffffffffffffffffffffffffffffffffffffffff168152602001908152602001600020600061062f610e32565b73ffffffffffffffffffffffffffffffffffffffff1673ffffffffffffffffffffffffffffffffffffffff168152602001908152602001600020546112f69092919063ffffffff16565b610e3a565b600190509392505050565b6000806000838152602001908152602001600020600201549050919050565b6106ce600080848152602001908152602001600020600201546106c9610e32565b610aa5565b610723576040517f08c379a000000000000000000000000000000000000000000000000000000000815260040180806020018281038252602f8152602001806122fc602f913960400191505060405180910390fd5b61072d82826113b0565b5050565b6000600760009054906101000a900460ff16905090565b610750610e32565b73ffffffffffffffffffffffffffffffffffffffff168173ffffffffffffffffffffffffffffffffffffffff16146107d3576040517f08c379a000000000000000000000000000000000000000000000000000000000815260040180806020018281038252602f8152602001806124aa602f913960400191505060405180910390fd5b6107dd8282611443565b5050565b600061088a6107ee610e32565b8461088585600360006107ff610e32565b73ffffffffffffffffffffffffffffffffffffffff1673ffffffffffffffffffffffffffffffffffffffff16815260200190815260200160002060008973ffffffffffffffffffffffffffffffffffffffff1673ffffffffffffffffffffffffffffffffffffffff168152602001908152602001600020546114d690919063ffffffff16565b610e3a565b6001905092915050565b6000600260008373ffffffffffffffffffffffffffffffffffffffff1673ffffffffffffffffffffffffffffffffffffffff168152602001908152602001600020549050919050565b7f5d5c2d2522b7f6ec8d1c86f44956b9ecd4376b1842cd263d54a5368aa149486d81565b600061092a8260008086815260200190815260200160002060000161155e90919063ffffffff16565b905092915050565b60018054906101000a900460ff168061094f575061094e611578565b5b806109675750600160009054906101000a900460ff16155b6109bc576040517f08c379a000000000000000000000000000000000000000000000000000000000815260040180806020018281038252602e8152602001806123c5602e913960400191505060405180910390fd5b600060018054906101000a900460ff161590508015610a0a5760018060016101000a81548160ff02191690831515021790555060018060006101000a81548160ff0219169083151502179055505b610a347f5d5c2d2522b7f6ec8d1c86f44956b9ecd4376b1842cd263d54a5368aa149486d85611589565b8260059080519060200190610a4a929190611c75565b508160069080519060200190610a61929190611c75565b506012600760006101000a81548160ff021916908360ff1602179055508015610a9f5760006001806101000a81548160ff0219169083151502179055505b50505050565b6000610ace8260008086815260200190815260200160002060000161159790919063ffffffff16565b905092915050565b6000610b027f5d5c2d2522b7f6ec8d1c86f44956b9ecd4376b1842cd263d54a5368aa149486d33610aa5565b610b0b57600080fd5b610b1582846115c7565b6001905092915050565b606060068054600181600116156101000203166002900480601f016020809104026020016040519081016040528092919081815260200182805460018160011615610100020316600290048015610bb75780601f10610b8c57610100808354040283529160200191610bb7565b820191906000526020600020905b815481529060010190602001808311610b9a57829003601f168201915b5050505050905090565b6000801b81565b6000610c8b610bd5610e32565b84610c86856040518060600160405280602581526020016124856025913960036000610bff610e32565b73ffffffffffffffffffffffffffffffffffffffff1673ffffffffffffffffffffffffffffffffffffffff16815260200190815260200160002060008a73ffffffffffffffffffffffffffffffffffffffff1673ffffffffffffffffffffffffffffffffffffffff168152602001908152602001600020546112f69092919063ffffffff16565b610e3a565b6001905092915050565b6000610ca9610ca2610e32565b8484611031565b6001905092915050565b6000610cd2600080848152602001908152602001600020600001611790565b9050919050565b610cff60008084815260200190815260200160002060020154610cfa610e32565b610aa5565b610d54576040517f08c379a00000000000000000000000000000000000000000000000000000000081526004018080602001828103825260308152602001806123956030913960400191505060405180910390fd5b610d5e8282611443565b5050565b6000600360008473ffffffffffffffffffffffffffffffffffffffff1673ffffffffffffffffffffffffffffffffffffffff16815260200190815260200160002060008373ffffffffffffffffffffffffffffffffffffffff1673ffffffffffffffffffffffffffffffffffffffff16815260200190815260200160002054905092915050565b6000610e157f5d5c2d2522b7f6ec8d1c86f44956b9ecd4376b1842cd263d54a5368aa149486d33610aa5565b610e1e57600080fd5b610e2882846117a5565b6001905092915050565b600033905090565b600073ffffffffffffffffffffffffffffffffffffffff168373ffffffffffffffffffffffffffffffffffffffff161415610ec0576040517f08c379a00000000000000000000000000000000000000000000000000000000081526004018080602001828103825260248152602001806124616024913960400191505060405180910390fd5b600073ffffffffffffffffffffffffffffffffffffffff168273ffffffffffffffffffffffffffffffffffffffff161415610f46576040517f08c379a000000000000000000000000000000000000000000000000000000000815260040180806020018281038252602281526020018061234d6022913960400191505060405180910390fd5b80600360008573ffffffffffffffffffffffffffffffffffffffff1673ffffffffffffffffffffffffffffffffffffffff16815260200190815260200160002060008473ffffffffffffffffffffffffffffffffffffffff1673ffffffffffffffffffffffffffffffffffffffff168152602001908152602001600020819055508173ffffffffffffffffffffffffffffffffffffffff168373ffffffffffffffffffffffffffffffffffffffff167f8c5be1e5ebec7d5bd14f71427d1e84f3dd0314c0f7b2291e5b200ac8c7c3b925836040518082815260200191505060405180910390a3505050565b600073ffffffffffffffffffffffffffffffffffffffff168373ffffffffffffffffffffffffffffffffffffffff1614156110b7576040517f08c379a000000000000000000000000000000000000000000000000000000000815260040180806020018281038252602581526020018061243c6025913960400191505060405180910390fd5b600073ffffffffffffffffffffffffffffffffffffffff168273ffffffffffffffffffffffffffffffffffffffff16141561113d576040517f08c379a00000000000000000000000000000000000000000000000000000000081526004018080602001828103825260238152602001806122d96023913960400191505060405180910390fd5b61114883838361196b565b6111b48160405180606001604052806026815260200161236f60269139600260008773ffffffffffffffffffffffffffffffffffffffff1673ffffffffffffffffffffffffffffffffffffffff168152602001908152602001600020546112f69092919063ffffffff16565b600260008573ffffffffffffffffffffffffffffffffffffffff1673ffffffffffffffffffffffffffffffffffffffff1681526020019081526020016000208190555061124981600260008573ffffffffffffffffffffffffffffffffffffffff1673ffffffffffffffffffffffffffffffffffffffff168152602001908152602001600020546114d690919063ffffffff16565b600260008473ffffffffffffffffffffffffffffffffffffffff1673ffffffffffffffffffffffffffffffffffffffff168152602001908152602001600020819055508173ffffffffffffffffffffffffffffffffffffffff168373ffffffffffffffffffffffffffffffffffffffff167fddf252ad1be2c89b69c2b068fc378daa952ba7f163c4a11628f55a4df523b3ef836040518082815260200191505060405180910390a3505050565b60008383111582906113a3576040517f08c379a00000000000000000000000000000000000000000000000000000000081526004018080602001828103825283818151815260200191508051906020019080838360005b8381101561136857808201518184015260208101905061134d565b50505050905090810190601f1680156113955780820380516001836020036101000a031916815260200191505b509250505060405180910390fd5b5082840390509392505050565b6113d78160008085815260200190815260200160002060000161197090919063ffffffff16565b1561143f576113e4610e32565b73ffffffffffffffffffffffffffffffffffffffff168173ffffffffffffffffffffffffffffffffffffffff16837f2f8788117e7eff1d82e926ec794901d17c78024a50270940304540a733656f0d60405160405180910390a45b5050565b61146a816000808581526020019081526020016000206000016119a090919063ffffffff16565b156114d257611477610e32565b73ffffffffffffffffffffffffffffffffffffffff168173ffffffffffffffffffffffffffffffffffffffff16837ff6391f5c32d9c69d2a47ea670b442974b53935d1edc7fd64eb21e047a839171b60405160405180910390a45b5050565b600080828401905083811015611554576040517f08c379a000000000000000000000000000000000000000000000000000000000815260040180806020018281038252601b8152602001807f536166654d6174683a206164646974696f6e206f766572666c6f77000000000081525060200191505060405180910390fd5b8091505092915050565b600061156d83600001836119d0565b60001c905092915050565b600061158330611a53565b15905090565b61159382826113b0565b5050565b60006115bf836000018373ffffffffffffffffffffffffffffffffffffffff1660001b611a66565b905092915050565b600073ffffffffffffffffffffffffffffffffffffffff168273ffffffffffffffffffffffffffffffffffffffff16141561166a576040517f08c379a000000000000000000000000000000000000000000000000000000000815260040180806020018281038252601f8152602001807f45524332303a206d696e7420746f20746865207a65726f20616464726573730081525060200191505060405180910390fd5b6116766000838361196b565b61168b816004546114d690919063ffffffff16565b6004819055506116e381600260008573ffffffffffffffffffffffffffffffffffffffff1673ffffffffffffffffffffffffffffffffffffffff168152602001908152602001600020546114d690919063ffffffff16565b600260008473ffffffffffffffffffffffffffffffffffffffff1673ffffffffffffffffffffffffffffffffffffffff168152602001908152602001600020819055508173ffffffffffffffffffffffffffffffffffffffff16600073ffffffffffffffffffffffffffffffffffffffff167fddf252ad1be2c89b69c2b068fc378daa952ba7f163c4a11628f55a4df523b3ef836040518082815260200191505060405180910390a35050565b600061179e82600001611a89565b9050919050565b600073ffffffffffffffffffffffffffffffffffffffff168273ffffffffffffffffffffffffffffffffffffffff16141561182b576040517f08c379a000000000000000000000000000000000000000000000000000000000815260040180806020018281038252602181526020018061241b6021913960400191505060405180910390fd5b6118378260008361196b565b6118a38160405180606001604052806022815260200161232b60229139600260008673ffffffffffffffffffffffffffffffffffffffff1673ffffffffffffffffffffffffffffffffffffffff168152602001908152602001600020546112f69092919063ffffffff16565b600260008473ffffffffffffffffffffffffffffffffffffffff1673ffffffffffffffffffffffffffffffffffffffff168152602001908152602001600020819055506118fb81600454611a9a90919063ffffffff16565b600481905550600073ffffffffffffffffffffffffffffffffffffffff168273ffffffffffffffffffffffffffffffffffffffff167fddf252ad1be2c89b69c2b068fc378daa952ba7f163c4a11628f55a4df523b3ef836040518082815260200191505060405180910390a35050565b505050565b6000611998836000018373ffffffffffffffffffffffffffffffffffffffff1660001b611b1d565b905092915050565b60006119c8836000018373ffffffffffffffffffffffffffffffffffffffff1660001b611b8d565b905092915050565b600081836000018054905011611a31576040517f08c379a00000000000000000000000000000000000000000000000000000000081526004018080602001828103825260228152602001806122b76022913960400191505060405180910390fd5b826000018281548110611a4057fe5b9060005260206000200154905092915050565b600080823b905060008111915050919050565b600080836001016000848152602001908152602001600020541415905092915050565b600081600001805490509050919050565b600082821115611b12576040517f08c379a000000000000000000000000000000000000000000000000000000000815260040180806020018281038252601e8152602001807f536166654d6174683a207375627472616374696f6e206f766572666c6f77000081525060200191505060405180910390fd5b818303905092915050565b6000611b298383611a66565b611b82578260000182908060018154018082558091505060019003906000526020600020016000909190919091505582600001805490508360010160008481526020019081526020016000208190555060019050611b87565b600090505b92915050565b60008083600101600084815260200190815260200160002054905060008114611c695760006001820390506000600186600001805490500390506000866000018281548110611bd857fe5b9060005260206000200154905080876000018481548110611bf557fe5b9060005260206000200181905550600183018760010160008381526020019081526020016000208190555086600001805480611c2d57fe5b60019003818190600052602060002001600090559055866001016000878152602001908152602001600020600090556001945050505050611c6f565b60009150505b92915050565b828054600181600116156101000203166002900490600052602060002090601f016020900481019282611cab5760008555611cf2565b82601f10611cc457805160ff1916838001178555611cf2565b82800160010185558215611cf2579182015b82811115611cf1578251825591602001919060010190611cd6565b5b509050611cff9190611d03565b5090565b5b80821115611d1c576000816000905550600101611d04565b5090565b6000611d33611d2e84612171565b612140565b905082815260208101848484011115611d4b57600080fd5b611d5684828561221c565b509392505050565b600081359050611d6d81612271565b92915050565b600081359050611d8281612288565b92915050565b600082601f830112611d9957600080fd5b8135611da9848260208601611d20565b91505092915050565b600081359050611dc18161229f565b92915050565b600060208284031215611dd957600080fd5b6000611de784828501611d5e565b91505092915050565b60008060408385031215611e0357600080fd5b6000611e1185828601611d5e565b9250506020611e2285828601611d5e565b9150509250929050565b600080600060608486031215611e4157600080fd5b6000611e4f86828701611d5e565b9350506020611e6086828701611d5e565b9250506040611e7186828701611db2565b9150509250925092565b600080600060608486031215611e9057600080fd5b6000611e9e86828701611d5e565b935050602084013567ffffffffffffffff811115611ebb57600080fd5b611ec786828701611d88565b925050604084013567ffffffffffffffff811115611ee457600080fd5b611ef086828701611d88565b9150509250925092565b60008060408385031215611f0d57600080fd5b6000611f1b85828601611d5e565b9250506020611f2c85828601611db2565b9150509250929050565b600060208284031215611f4857600080fd5b6000611f5684828501611d73565b91505092915050565b60008060408385031215611f7257600080fd5b6000611f8085828601611d73565b9250506020611f9185828601611d5e565b9150509250929050565b60008060408385031215611fae57600080fd5b6000611fbc85828601611d73565b9250506020611fcd85828601611db2565b9150509250929050565b60008060408385031215611fea57600080fd5b6000611ff885828601611db2565b925050602061200985828601611d5e565b9150509250929050565b61201c816121bd565b82525050565b61202b816121cf565b82525050565b61203a816121db565b82525050565b600061204b826121a1565b61205581856121ac565b935061206581856020860161222b565b61206e81612260565b840191505092915050565b61208281612205565b82525050565b6120918161220f565b82525050565b60006020820190506120ac6000830184612013565b92915050565b60006020820190506120c76000830184612022565b92915050565b60006020820190506120e26000830184612031565b92915050565b600060208201905081810360008301526121028184612040565b905092915050565b600060208201905061211f6000830184612079565b92915050565b600060208201905061213a6000830184612088565b92915050565b6000604051905081810181811067ffffffffffffffff821117156121675761216661225e565b5b8060405250919050565b600067ffffffffffffffff82111561218c5761218b61225e565b5b601f19601f8301169050602081019050919050565b600081519050919050565b600082825260208201905092915050565b60006121c8826121e5565b9050919050565b60008115159050919050565b6000819050919050565b600073ffffffffffffffffffffffffffffffffffffffff82169050919050565b6000819050919050565b600060ff82169050919050565b82818337600083830152505050565b60005b8381101561224957808201518184015260208101905061222e565b83811115612258576000848401525b50505050565bfe5b6000601f19601f8301169050919050565b61227a816121bd565b811461228557600080fd5b50565b612291816121db565b811461229c57600080fd5b50565b6122a881612205565b81146122b357600080fd5b5056fe456e756d657261626c655365743a20696e646578206f7574206f6620626f756e647345524332303a207472616e7366657220746f20746865207a65726f2061646472657373416363657373436f6e74726f6c3a2073656e646572206d75737420626520616e2061646d696e20746f206772616e7445524332303a206275726e20616d6f756e7420657863656564732062616c616e636545524332303a20617070726f766520746f20746865207a65726f206164647265737345524332303a207472616e7366657220616d6f756e7420657863656564732062616c616e6365416363657373436f6e74726f6c3a2073656e646572206d75737420626520616e2061646d696e20746f207265766f6b65496e697469616c697a61626c653a20636f6e747261637420697320616c726561647920696e697469616c697a656445524332303a207472616e7366657220616d6f756e74206578636565647320616c6c6f77616e636545524332303a206275726e2066726f6d20746865207a65726f206164647265737345524332303a207472616e736665722066726f6d20746865207a65726f206164647265737345524332303a20617070726f76652066726f6d20746865207a65726f206164647265737345524332303a2064656372656173656420616c6c6f77616e63652062656c6f77207a65726f416363657373436f6e74726f6c3a2063616e206f6e6c792072656e6f756e636520726f6c657320666f722073656c66a2646970667358221220486922e93b04c3bc93bf288727f1d02f056a9e6b45bb11aeda8e438dfb677d7b64736f6c63430007060033",
  "linkReferences": {},
  "deployedLinkReferences": {}
}