{
  "_format": "hh-sol-artifact-1",
  "contractName": "PoolFactory",
  "sourceName": "contracts/implementation/PoolFactory.sol",
  "abi": [
    {
      "inputs": [],
      "stateMutability": "nonpayable",
      "type": "constructor"
    },
    {
      "anonymous": false,
      "inputs": [
        {
          "indexed": true,
          "internalType": "address",
          "name": "pool",
          "type": "address"
        },
        {
          "indexed": false,
          "internalType": "string",
          "name": "poolCode",
          "type": "string"
        }
      ],
      "name": "DeployPool",
      "type": "event"
    },
    {
      "anonymous": false,
      "inputs": [
        {
          "indexed": true,
          "internalType": "bytes32",
          "name": "role",
          "type": "bytes32"
        },
        {
          "indexed": true,
          "internalType": "bytes32",
          "name": "previousAdminRole",
          "type": "bytes32"
        },
        {
          "indexed": true,
          "internalType": "bytes32",
          "name": "newAdminRole",
          "type": "bytes32"
        }
      ],
      "name": "RoleAdminChanged",
      "type": "event"
    },
    {
      "anonymous": false,
      "inputs": [
        {
          "indexed": true,
          "internalType": "bytes32",
          "name": "role",
          "type": "bytes32"
        },
        {
          "indexed": true,
          "internalType": "address",
          "name": "account",
          "type": "address"
        },
        {
          "indexed": true,
          "internalType": "address",
          "name": "sender",
          "type": "address"
        }
      ],
      "name": "RoleGranted",
      "type": "event"
    },
    {
      "anonymous": false,
      "inputs": [
        {
          "indexed": true,
          "internalType": "bytes32",
          "name": "role",
          "type": "bytes32"
        },
        {
          "indexed": true,
          "internalType": "address",
          "name": "account",
          "type": "address"
        },
        {
          "indexed": true,
          "internalType": "address",
          "name": "sender",
          "type": "address"
        }
      ],
      "name": "RoleRevoked",
      "type": "event"
    },
    {
      "inputs": [],
      "name": "ADMIN",
      "outputs": [
        {
          "internalType": "bytes32",
          "name": "",
          "type": "bytes32"
        }
      ],
      "stateMutability": "view",
      "type": "function"
    },
    {
      "inputs": [],
      "name": "DEFAULT_ADMIN_ROLE",
      "outputs": [
        {
          "internalType": "bytes32",
          "name": "",
          "type": "bytes32"
        }
      ],
      "stateMutability": "view",
      "type": "function"
    },
    {
      "inputs": [],
      "name": "OPERATOR",
      "outputs": [
        {
          "internalType": "bytes32",
          "name": "",
          "type": "bytes32"
        }
      ],
      "stateMutability": "view",
      "type": "function"
    },
    {
      "inputs": [
        {
          "components": [
            {
              "internalType": "address",
              "name": "owner",
              "type": "address"
            },
            {
              "internalType": "string",
              "name": "poolCode",
              "type": "string"
            },
            {
              "internalType": "uint32",
              "name": "frontRunningInterval",
              "type": "uint32"
            },
            {
              "internalType": "uint32",
              "name": "updateInterval",
              "type": "uint32"
            },
            {
              "internalType": "bytes16",
              "name": "fee",
              "type": "bytes16"
            },
            {
              "internalType": "uint16",
              "name": "leverageAmount",
              "type": "uint16"
            },
            {
              "internalType": "address",
              "name": "feeAddress",
              "type": "address"
            },
            {
              "internalType": "address",
              "name": "quoteToken",
              "type": "address"
            },
            {
              "internalType": "address",
              "name": "oracleWrapper",
              "type": "address"
            }
          ],
          "internalType": "struct IPoolFactory.PoolDeployment",
          "name": "deploymentParameters",
          "type": "tuple"
        }
      ],
      "name": "deployPool",
      "outputs": [
        {
          "internalType": "address",
          "name": "",
          "type": "address"
        }
      ],
      "stateMutability": "nonpayable",
      "type": "function"
    },
    {
      "inputs": [
        {
          "internalType": "bytes32",
          "name": "role",
          "type": "bytes32"
        }
      ],
      "name": "getRoleAdmin",
      "outputs": [
        {
          "internalType": "bytes32",
          "name": "",
          "type": "bytes32"
        }
      ],
      "stateMutability": "view",
      "type": "function"
    },
    {
      "inputs": [
        {
          "internalType": "bytes32",
          "name": "role",
          "type": "bytes32"
        },
        {
          "internalType": "uint256",
          "name": "index",
          "type": "uint256"
        }
      ],
      "name": "getRoleMember",
      "outputs": [
        {
          "internalType": "address",
          "name": "",
          "type": "address"
        }
      ],
      "stateMutability": "view",
      "type": "function"
    },
    {
      "inputs": [
        {
          "internalType": "bytes32",
          "name": "role",
          "type": "bytes32"
        }
      ],
      "name": "getRoleMemberCount",
      "outputs": [
        {
          "internalType": "uint256",
          "name": "",
          "type": "uint256"
        }
      ],
      "stateMutability": "view",
      "type": "function"
    },
    {
      "inputs": [
        {
          "internalType": "bytes32",
          "name": "role",
          "type": "bytes32"
        },
        {
          "internalType": "address",
          "name": "account",
          "type": "address"
        }
      ],
      "name": "grantRole",
      "outputs": [],
      "stateMutability": "nonpayable",
      "type": "function"
    },
    {
      "inputs": [
        {
          "internalType": "bytes32",
          "name": "role",
          "type": "bytes32"
        },
        {
          "internalType": "address",
          "name": "account",
          "type": "address"
        }
      ],
      "name": "hasRole",
      "outputs": [
        {
          "internalType": "bool",
          "name": "",
          "type": "bool"
        }
      ],
      "stateMutability": "view",
      "type": "function"
    },
    {
      "inputs": [],
      "name": "pairTokenBase",
      "outputs": [
        {
          "internalType": "contract PoolToken",
          "name": "",
          "type": "address"
        }
      ],
      "stateMutability": "view",
      "type": "function"
    },
    {
      "inputs": [],
      "name": "poolBase",
      "outputs": [
        {
          "internalType": "contract LeveragedPool",
          "name": "",
          "type": "address"
        }
      ],
      "stateMutability": "view",
      "type": "function"
    },
    {
      "inputs": [],
      "name": "poolKeeper",
      "outputs": [
        {
          "internalType": "contract IPoolKeeper",
          "name": "",
          "type": "address"
        }
      ],
      "stateMutability": "view",
      "type": "function"
    },
    {
      "inputs": [
        {
          "internalType": "bytes32",
          "name": "role",
          "type": "bytes32"
        },
        {
          "internalType": "address",
          "name": "account",
          "type": "address"
        }
      ],
      "name": "renounceRole",
      "outputs": [],
      "stateMutability": "nonpayable",
      "type": "function"
    },
    {
      "inputs": [
        {
          "internalType": "bytes32",
          "name": "role",
          "type": "bytes32"
        },
        {
          "internalType": "address",
          "name": "account",
          "type": "address"
        }
      ],
      "name": "revokeRole",
      "outputs": [],
      "stateMutability": "nonpayable",
      "type": "function"
    },
    {
      "inputs": [
        {
          "internalType": "address",
          "name": "_operator",
          "type": "address"
        }
      ],
      "name": "setOperator",
      "outputs": [],
      "stateMutability": "nonpayable",
      "type": "function"
    },
    {
      "inputs": [
        {
          "internalType": "address",
          "name": "_poolKeeper",
          "type": "address"
        }
      ],
      "name": "setPoolKeeper",
      "outputs": [],
      "stateMutability": "nonpayable",
      "type": "function"
    }
  ],
  "bytecode": "0x60806040523480156200001157600080fd5b506040516200002090620004a4565b604051809103906000f0801580156200003d573d6000803e3d6000fd5b50600160006101000a81548173ffffffffffffffffffffffffffffffffffffffff021916908373ffffffffffffffffffffffffffffffffffffffff1602179055506040516200008c90620004b2565b604051809103906000f080158015620000a9573d6000803e3d6000fd5b50600260006101000a81548173ffffffffffffffffffffffffffffffffffffffff021916908373ffffffffffffffffffffffffffffffffffffffff1602179055506200011c7fdf8b4c520ffe197c5343c6f5aec59570151ef9a492f2c624fd45ddde6135ec4233620002ac60201b60201c565b6200016e7f523a704056dcd17bcf83bed8b68c59416dac1119be77755efe3bde0a64e46e0c7fdf8b4c520ffe197c5343c6f5aec59570151ef9a492f2c624fd45ddde6135ec42620002c260201b60201c565b600260009054906101000a900473ffffffffffffffffffffffffffffffffffffffff1673ffffffffffffffffffffffffffffffffffffffff16634444f80160003060008060028060008030306040518b63ffffffff1660e01b8152600401620001e19a99989796959493929190620005db565b600060405180830381600087803b158015620001fc57600080fd5b505af115801562000211573d6000803e3d6000fd5b50505050600160009054906101000a900473ffffffffffffffffffffffffffffffffffffffff1673ffffffffffffffffffffffffffffffffffffffff166390657147306040518263ffffffff1660e01b8152600401620002729190620006a1565b600060405180830381600087803b1580156200028d57600080fd5b505af1158015620002a2573d6000803e3d6000fd5b50505050620007e4565b620002be82826200032460201b60201c565b5050565b8060008084815260200190815260200160002060020154837fbd79b86ffe0ab8e8776151514217cd7cacd52c909f66475c3af44e129f0b00ff60405160405180910390a480600080848152602001908152602001600020600201819055505050565b6200035281600080858152602001908152602001600020600001620003c760201b62000ad41790919060201c565b15620003c35762000368620003ff60201b60201c565b73ffffffffffffffffffffffffffffffffffffffff168173ffffffffffffffffffffffffffffffffffffffff16837f2f8788117e7eff1d82e926ec794901d17c78024a50270940304540a733656f0d60405160405180910390a45b5050565b6000620003f7836000018373ffffffffffffffffffffffffffffffffffffffff1660001b6200040760201b60201c565b905092915050565b600033905090565b60006200041b83836200048160201b60201c565b620004765782600001829080600181540180825580915050600190039060005260206000200160009091909190915055826000018054905083600101600084815260200190815260200160002081905550600190506200047b565b600090505b92915050565b600080836001016000848152602001908152602001600020541415905092915050565b6126a8806200242783390190565b615e748062004acf83390190565b620004cb8162000755565b82525050565b620004dc81620006f9565b82525050565b620004ed8162000769565b82525050565b620004fe8162000787565b82525050565b6200050f816200079b565b82525050565b600062000524600483620006e8565b91507f42415345000000000000000000000000000000000000000000000000000000006000830152602082019050919050565b600062000566600983620006e8565b91507f424153455f504f4f4c00000000000000000000000000000000000000000000006000830152602082019050919050565b6000620005a8600a83620006e8565b91507f424153455f544f4b454e000000000000000000000000000000000000000000006000830152602082019050919050565b600061016082019050620005f3600083018d620004c0565b62000602602083018c620004d1565b62000611604083018b620004c0565b62000620606083018a620004c0565b8181036080830152620006338162000557565b90506200064460a083018962000504565b6200065360c083018862000504565b6200066260e0830187620004e2565b62000672610100830186620004f3565b62000682610120830185620004d1565b62000692610140830184620004d1565b9b9a5050505050505050505050565b6000606082019050620006b86000830184620004d1565b8181036020830152620006cb8162000599565b90508181036040830152620006e08162000515565b905092915050565b600082825260208201905092915050565b6000620007068262000725565b9050919050565b6000819050919050565b600061ffff82169050919050565b600073ffffffffffffffffffffffffffffffffffffffff82169050919050565b600063ffffffff82169050919050565b60006200076282620007af565b9050919050565b6000620007806200077a836200070d565b620007d7565b9050919050565b6000620007948262000717565b9050919050565b6000620007a88262000745565b9050919050565b6000620007bc82620007c3565b9050919050565b6000620007d08262000725565b9050919050565b60008160801b9050919050565b611c3380620007f46000396000f3fe608060405234801561001057600080fd5b50600436106101005760003560e01c806391d1485411610097578063b3ab15fb11610066578063b3ab15fb146102af578063ca15c873146102cb578063d547741f146102fb578063d723c68b1461031757610100565b806391d1485414610213578063983d273714610243578063a217fddf14610261578063abd1de0e1461027f57610100565b806336568abe116100d357806336568abe1461018d578063430ed6eb146101a95780635bae377a146101c55780639010d07c146101e357610100565b8063178f9e3514610105578063248a9ca3146101235780632a0acc6a146101535780632f2ff15d14610171575b600080fd5b61010d610335565b60405161011a91906117e0565b60405180910390f35b61013d600480360381019061013891906112ae565b61035b565b60405161014a91906117c5565b60405180910390f35b61015b61037a565b60405161016891906117c5565b60405180910390f35b61018b600480360381019061018691906112d7565b61039e565b005b6101a760048036038101906101a291906112d7565b610427565b005b6101c360048036038101906101be9190611285565b6104c0565b005b6101cd61056d565b6040516101da91906117fb565b60405180910390f35b6101fd60048036038101906101f89190611313565b610593565b60405161020a9190611698565b60405180910390f35b61022d600480360381019061022891906112d7565b6105c4565b60405161023a91906117aa565b60405180910390f35b61024b6105f5565b60405161025891906117c5565b60405180910390f35b610269610619565b60405161027691906117c5565b60405180910390f35b6102996004803603810190610294919061134f565b610620565b6040516102a69190611698565b60405180910390f35b6102c960048036038101906102c49190611285565b61093f565b005b6102e560048036038101906102e091906112ae565b6109ff565b6040516102f291906118c3565b60405180910390f35b610315600480360381019061031091906112d7565b610a25565b005b61031f610aae565b60405161032c9190611816565b60405180910390f35b600360009054906101000a900473ffffffffffffffffffffffffffffffffffffffff1681565b6000806000838152602001908152602001600020600201549050919050565b7fdf8b4c520ffe197c5343c6f5aec59570151ef9a492f2c624fd45ddde6135ec4281565b6103c4600080848152602001908152602001600020600201546103bf610b04565b6105c4565b610419576040517f08c379a000000000000000000000000000000000000000000000000000000000815260040180806020018281038252602f815260200180611b70602f913960400191505060405180910390fd5b6104238282610b0c565b5050565b61042f610b04565b73ffffffffffffffffffffffffffffffffffffffff168173ffffffffffffffffffffffffffffffffffffffff16146104b2576040517f08c379a000000000000000000000000000000000000000000000000000000000815260040180806020018281038252602f815260200180611bcf602f913960400191505060405180910390fd5b6104bc8282610b9f565b5050565b6104ea7fdf8b4c520ffe197c5343c6f5aec59570151ef9a492f2c624fd45ddde6135ec42336105c4565b610529576040517f08c379a0000000000000000000000000000000000000000000000000000000008152600401610520906118a3565b60405180910390fd5b80600360006101000a81548173ffffffffffffffffffffffffffffffffffffffff021916908373ffffffffffffffffffffffffffffffffffffffff16021790555050565b600260009054906101000a900473ffffffffffffffffffffffffffffffffffffffff1681565b60006105bc82600080868152602001908152602001600020600001610c3290919063ffffffff16565b905092915050565b60006105ed82600080868152602001908152602001600020600001610c4c90919063ffffffff16565b905092915050565b7f523a704056dcd17bcf83bed8b68c59416dac1119be77755efe3bde0a64e46e0c81565b6000801b81565b60008073ffffffffffffffffffffffffffffffffffffffff16600360009054906101000a900473ffffffffffffffffffffffffffffffffffffffff1673ffffffffffffffffffffffffffffffffffffffff1614156106b3576040517f08c379a00000000000000000000000000000000000000000000000000000000081526004016106aa90611883565b60405180910390fd5b600061070b600260009054906101000a900473ffffffffffffffffffffffffffffffffffffffff1684602001516040516020016106f09190611831565b60405160208183030381529060405280519060200120610c7c565b90508073ffffffffffffffffffffffffffffffffffffffff167fd76cdb035f3aba359cb02087e4c5bd75f911562b407fc3a52ed2bedfb46585b684602001516040516107579190611831565b60405180910390a28073ffffffffffffffffffffffffffffffffffffffff16634444f80184600001518561010001516107d785886020015160405160200161079f9190611632565b60405160208183030381529060405289602001516040516020016107c39190611654565b604051602081830303815290604052610d86565b6108288689602001516040516020016107f09190611610565b6040516020818303038152906040528a602001516040516020016108149190611676565b604051602081830303815290604052610d86565b886020015189604001518a606001518b608001518c60a001518d60c001518e60e001516040518c63ffffffff1660e01b81526004016108719b9a999897969594939291906116b3565b600060405180830381600087803b15801561088b57600080fd5b505af115801561089f573d6000803e3d6000fd5b50505050600360009054906101000a900473ffffffffffffffffffffffffffffffffffffffff1673ffffffffffffffffffffffffffffffffffffffff1663daee4c788460200151836040518363ffffffff1660e01b8152600401610904929190611853565b600060405180830381600087803b15801561091e57600080fd5b505af1158015610932573d6000803e3d6000fd5b5050505080915050919050565b6109697fdf8b4c520ffe197c5343c6f5aec59570151ef9a492f2c624fd45ddde6135ec42336105c4565b6109a8576040517f08c379a000000000000000000000000000000000000000000000000000000000815260040161099f906118a3565b60405180910390fd5b6109d27fdf8b4c520ffe197c5343c6f5aec59570151ef9a492f2c624fd45ddde6135ec4233610a25565b6109fc7fdf8b4c520ffe197c5343c6f5aec59570151ef9a492f2c624fd45ddde6135ec428261039e565b50565b6000610a1e600080848152602001908152602001600020600001610e57565b9050919050565b610a4b60008084815260200190815260200160002060020154610a46610b04565b6105c4565b610aa0576040517f08c379a0000000000000000000000000000000000000000000000000000000008152600401808060200182810382526030815260200180611b9f6030913960400191505060405180910390fd5b610aaa8282610b9f565b5050565b600160009054906101000a900473ffffffffffffffffffffffffffffffffffffffff1681565b6000610afc836000018373ffffffffffffffffffffffffffffffffffffffff1660001b610e6c565b905092915050565b600033905090565b610b3381600080858152602001908152602001600020600001610ad490919063ffffffff16565b15610b9b57610b40610b04565b73ffffffffffffffffffffffffffffffffffffffff168173ffffffffffffffffffffffffffffffffffffffff16837f2f8788117e7eff1d82e926ec794901d17c78024a50270940304540a733656f0d60405160405180910390a45b5050565b610bc681600080858152602001908152602001600020600001610edc90919063ffffffff16565b15610c2e57610bd3610b04565b73ffffffffffffffffffffffffffffffffffffffff168173ffffffffffffffffffffffffffffffffffffffff16837ff6391f5c32d9c69d2a47ea670b442974b53935d1edc7fd64eb21e047a839171b60405160405180910390a45b5050565b6000610c418360000183610f0c565b60001c905092915050565b6000610c74836000018373ffffffffffffffffffffffffffffffffffffffff1660001b610f8f565b905092915050565b60006040517f3d602d80600a3d3981f3363d3d373d3d3d363d7300000000000000000000000081528360601b60148201527f5af43d82803e903d91602b57fd5bf300000000000000000000000000000000006028820152826037826000f5915050600073ffffffffffffffffffffffffffffffffffffffff168173ffffffffffffffffffffffffffffffffffffffff161415610d80576040517f08c379a00000000000000000000000000000000000000000000000000000000081526004018080602001828103825260178152602001807f455243313136373a2063726561746532206661696c656400000000000000000081525060200191505060405180910390fd5b92915050565b600080610ddb600160009054906101000a900473ffffffffffffffffffffffffffffffffffffffff1685604051602001610dc09190611831565b60405160208183030381529060405280519060200120610c7c565b90508073ffffffffffffffffffffffffffffffffffffffff1663906571478686866040518463ffffffff1660e01b8152600401610e1a93929190611765565b600060405180830381600087803b158015610e3457600080fd5b505af1158015610e48573d6000803e3d6000fd5b50505050809150509392505050565b6000610e6582600001610fb2565b9050919050565b6000610e788383610f8f565b610ed1578260000182908060018154018082558091505060019003906000526020600020016000909190919091505582600001805490508360010160008481526020019081526020016000208190555060019050610ed6565b600090505b92915050565b6000610f04836000018373ffffffffffffffffffffffffffffffffffffffff1660001b610fc3565b905092915050565b600081836000018054905011610f6d576040517f08c379a0000000000000000000000000000000000000000000000000000000008152600401808060200182810382526022815260200180611b4e6022913960400191505060405180910390fd5b826000018281548110610f7c57fe5b9060005260206000200154905092915050565b600080836001016000848152602001908152602001600020541415905092915050565b600081600001805490509050919050565b6000808360010160008481526020019081526020016000205490506000811461109f576000600182039050600060018660000180549050039050600086600001828154811061100e57fe5b906000526020600020015490508087600001848154811061102b57fe5b906000526020600020018190555060018301876001016000838152602001908152602001600020819055508660000180548061106357fe5b600190038181906000526020600020016000905590558660010160008781526020019081526020016000206000905560019450505050506110a5565b60009150505b92915050565b60006110be6110b98461190f565b6118de565b9050828152602081018484840111156110d657600080fd5b6110e1848285611a6e565b509392505050565b6000813590506110f881611ac3565b92915050565b60008135905061110d81611ada565b92915050565b60008135905061112281611af1565b92915050565b600082601f83011261113957600080fd5b81356111498482602086016110ab565b91505092915050565b6000610120828403121561116557600080fd5b6111706101206118de565b90506000611180848285016110e9565b600083015250602082013567ffffffffffffffff8111156111a057600080fd5b6111ac84828501611128565b60208301525060406111c084828501611270565b60408301525060606111d484828501611270565b60608301525060806111e8848285016110fe565b60808301525060a06111fc84828501611246565b60a08301525060c0611210848285016110e9565b60c08301525060e0611224848285016110e9565b60e083015250610100611239848285016110e9565b6101008301525092915050565b60008135905061125581611b08565b92915050565b60008135905061126a81611b1f565b92915050565b60008135905061127f81611b36565b92915050565b60006020828403121561129757600080fd5b60006112a5848285016110e9565b91505092915050565b6000602082840312156112c057600080fd5b60006112ce84828501611113565b91505092915050565b600080604083850312156112ea57600080fd5b60006112f885828601611113565b9250506020611309858286016110e9565b9150509250929050565b6000806040838503121561132657600080fd5b600061133485828601611113565b92505060206113458582860161125b565b9150509250929050565b60006020828403121561136157600080fd5b600082013567ffffffffffffffff81111561137b57600080fd5b61138784828501611152565b91505092915050565b61139981611966565b82525050565b6113a881611978565b82525050565b6113b781611984565b82525050565b6113c6816119b0565b82525050565b6113d581611a02565b82525050565b6113e481611a26565b82525050565b6113f381611a4a565b82525050565b60006114048261193f565b61140e818561194a565b935061141e818560208601611a7d565b61142781611ab2565b840191505092915050565b600061143d8261193f565b611447818561195b565b9350611457818560208601611a7d565b80840191505092915050565b600061147060068361195b565b91507f2d53484f525400000000000000000000000000000000000000000000000000006000830152600682019050919050565b60006114b060028361195b565b91507f4c2d0000000000000000000000000000000000000000000000000000000000006000830152600282019050919050565b60006114f060028361195b565b91507f532d0000000000000000000000000000000000000000000000000000000000006000830152600282019050919050565b600061153060058361195b565b91507f2d4c4f4e470000000000000000000000000000000000000000000000000000006000830152600582019050919050565b600061157060128361194a565b91507f506f6f6c4b6565706572206e6f742073657400000000000000000000000000006000830152602082019050919050565b60006115b060148361194a565b91507f6d73672e73656e646572206e6f742041444d494e0000000000000000000000006000830152602082019050919050565b6115ec816119ba565b82525050565b6115fb816119e8565b82525050565b61160a816119f2565b82525050565b600061161c8284611432565b915061162782611463565b915081905092915050565b600061163e8284611432565b915061164982611523565b915081905092915050565b600061165f826114a3565b915061166b8284611432565b915081905092915050565b6000611681826114e3565b915061168d8284611432565b915081905092915050565b60006020820190506116ad6000830184611390565b92915050565b6000610160820190506116c9600083018e611390565b6116d6602083018d611390565b6116e3604083018c611390565b6116f0606083018b611390565b8181036080830152611702818a6113f9565b905061171160a0830189611601565b61171e60c0830188611601565b61172b60e08301876113ae565b6117396101008301866115e3565b611747610120830185611390565b611755610140830184611390565b9c9b505050505050505050505050565b600060608201905061177a6000830186611390565b818103602083015261178c81856113f9565b905081810360408301526117a081846113f9565b9050949350505050565b60006020820190506117bf600083018461139f565b92915050565b60006020820190506117da60008301846113bd565b92915050565b60006020820190506117f560008301846113cc565b92915050565b600060208201905061181060008301846113db565b92915050565b600060208201905061182b60008301846113ea565b92915050565b6000602082019050818103600083015261184b81846113f9565b905092915050565b6000604082019050818103600083015261186d81856113f9565b905061187c6020830184611390565b9392505050565b6000602082019050818103600083015261189c81611563565b9050919050565b600060208201905081810360008301526118bc816115a3565b9050919050565b60006020820190506118d860008301846115f2565b92915050565b6000604051905081810181811067ffffffffffffffff8211171561190557611904611ab0565b5b8060405250919050565b600067ffffffffffffffff82111561192a57611929611ab0565b5b601f19601f8301169050602081019050919050565b600081519050919050565b600082825260208201905092915050565b600081905092915050565b6000611971826119c8565b9050919050565b60008115159050919050565b60007fffffffffffffffffffffffffffffffff0000000000000000000000000000000082169050919050565b6000819050919050565b600061ffff82169050919050565b600073ffffffffffffffffffffffffffffffffffffffff82169050919050565b6000819050919050565b600063ffffffff82169050919050565b6000611a0d82611a14565b9050919050565b6000611a1f826119c8565b9050919050565b6000611a3182611a38565b9050919050565b6000611a43826119c8565b9050919050565b6000611a5582611a5c565b9050919050565b6000611a67826119c8565b9050919050565b82818337600083830152505050565b60005b83811015611a9b578082015181840152602081019050611a80565b83811115611aaa576000848401525b50505050565bfe5b6000601f19601f8301169050919050565b611acc81611966565b8114611ad757600080fd5b50565b611ae381611984565b8114611aee57600080fd5b50565b611afa816119b0565b8114611b0557600080fd5b50565b611b11816119ba565b8114611b1c57600080fd5b50565b611b28816119e8565b8114611b3357600080fd5b50565b611b3f816119f2565b8114611b4a57600080fd5b5056fe456e756d657261626c655365743a20696e646578206f7574206f6620626f756e6473416363657373436f6e74726f6c3a2073656e646572206d75737420626520616e2061646d696e20746f206772616e74416363657373436f6e74726f6c3a2073656e646572206d75737420626520616e2061646d696e20746f207265766f6b65416363657373436f6e74726f6c3a2063616e206f6e6c792072656e6f756e636520726f6c657320666f722073656c66a26469706673582212200adb6b319537c1191e6b0b5caf4ff64e4980859329849db97f0427a1e81f1df164736f6c6343000706003360806040523480156200001157600080fd5b506040518060400160405280600a81526020017f424153455f544f4b454e000000000000000000000000000000000000000000008152506040518060400160405280600481526020017f4241534500000000000000000000000000000000000000000000000000000000815250816005908051906020019062000096929190620000d4565b508060069080519060200190620000af929190620000d4565b506012600760006101000a81548160ff021916908360ff16021790555050506200018a565b828054600181600116156101000203166002900490600052602060002090601f0160209004810192826200010c576000855562000158565b82601f106200012757805160ff191683800117855562000158565b8280016001018555821562000158579182015b82811115620001575782518255916020019190600101906200013a565b5b5090506200016791906200016b565b5090565b5b80821115620001865760008160009055506001016200016c565b5090565b61250e806200019a6000396000f3fe608060405234801561001057600080fd5b506004361061014d5760003560e01c80639010d07c116100c3578063a457c2d71161007c578063a457c2d7146103da578063a9059cbb1461040a578063ca15c8731461043a578063d547741f1461046a578063dd62ed3e14610486578063fcd3533c146104b65761014d565b80639010d07c146102f2578063906571471461032257806391d148541461033e57806394bf804d1461036e57806395d89b411461039e578063a217fddf146103bc5761014d565b80632f2ff15d116101155780632f2ff15d1461021e578063313ce5671461023a57806336568abe14610258578063395093511461027457806370a08231146102a45780637535d246146102d45761014d565b806306fdde0314610152578063095ea7b31461017057806318160ddd146101a057806323b872dd146101be578063248a9ca3146101ee575b600080fd5b61015a6104e6565b60405161016791906120e8565b60405180910390f35b61018a60048036038101906101859190611efa565b610588565b60405161019791906120b2565b60405180910390f35b6101a86105a6565b6040516101b5919061210a565b60405180910390f35b6101d860048036038101906101d39190611e2c565b6105b0565b6040516101e591906120b2565b60405180910390f35b61020860048036038101906102039190611f36565b610689565b60405161021591906120cd565b60405180910390f35b61023860048036038101906102339190611f5f565b6106a8565b005b610242610731565b60405161024f9190612125565b60405180910390f35b610272600480360381019061026d9190611f5f565b610748565b005b61028e60048036038101906102899190611efa565b6107e1565b60405161029b91906120b2565b60405180910390f35b6102be60048036038101906102b99190611dc7565b610894565b6040516102cb919061210a565b60405180910390f35b6102dc6108dd565b6040516102e991906120cd565b60405180910390f35b61030c60048036038101906103079190611f9b565b610901565b6040516103199190612097565b60405180910390f35b61033c60048036038101906103379190611e7b565b610932565b005b61035860048036038101906103539190611f5f565b610aa5565b60405161036591906120b2565b60405180910390f35b61038860048036038101906103839190611fd7565b610ad6565b60405161039591906120b2565b60405180910390f35b6103a6610b1f565b6040516103b391906120e8565b60405180910390f35b6103c4610bc1565b6040516103d191906120cd565b60405180910390f35b6103f460048036038101906103ef9190611efa565b610bc8565b60405161040191906120b2565b60405180910390f35b610424600480360381019061041f9190611efa565b610c95565b60405161043191906120b2565b60405180910390f35b610454600480360381019061044f9190611f36565b610cb3565b604051610461919061210a565b60405180910390f35b610484600480360381019061047f9190611f5f565b610cd9565b005b6104a0600480360381019061049b9190611df0565b610d62565b6040516104ad919061210a565b60405180910390f35b6104d060048036038101906104cb9190611fd7565b610de9565b6040516104dd91906120b2565b60405180910390f35b606060058054600181600116156101000203166002900480601f01602080910402602001604051908101604052809291908181526020018280546001816001161561010002031660029004801561057e5780601f106105535761010080835404028352916020019161057e565b820191906000526020600020905b81548152906001019060200180831161056157829003601f168201915b5050505050905090565b600061059c610595610e32565b8484610e3a565b6001905092915050565b6000600454905090565b60006105bd848484611031565b61067e846105c9610e32565b610679856040518060600160405280602881526020016123f360289139600360008b73ffffffffffffffffffffffffffffffffffffffff1673ffffffffffffffffffffffffffffffffffffffff168152602001908152602001600020600061062f610e32565b73ffffffffffffffffffffffffffffffffffffffff1673ffffffffffffffffffffffffffffffffffffffff168152602001908152602001600020546112f69092919063ffffffff16565b610e3a565b600190509392505050565b6000806000838152602001908152602001600020600201549050919050565b6106ce600080848152602001908152602001600020600201546106c9610e32565b610aa5565b610723576040517f08c379a000000000000000000000000000000000000000000000000000000000815260040180806020018281038252602f8152602001806122fc602f913960400191505060405180910390fd5b61072d82826113b0565b5050565b6000600760009054906101000a900460ff16905090565b610750610e32565b73ffffffffffffffffffffffffffffffffffffffff168173ffffffffffffffffffffffffffffffffffffffff16146107d3576040517f08c379a000000000000000000000000000000000000000000000000000000000815260040180806020018281038252602f8152602001806124aa602f913960400191505060405180910390fd5b6107dd8282611443565b5050565b600061088a6107ee610e32565b8461088585600360006107ff610e32565b73ffffffffffffffffffffffffffffffffffffffff1673ffffffffffffffffffffffffffffffffffffffff16815260200190815260200160002060008973ffffffffffffffffffffffffffffffffffffffff1673ffffffffffffffffffffffffffffffffffffffff168152602001908152602001600020546114d690919063ffffffff16565b610e3a565b6001905092915050565b6000600260008373ffffffffffffffffffffffffffffffffffffffff1673ffffffffffffffffffffffffffffffffffffffff168152602001908152602001600020549050919050565b7f5d5c2d2522b7f6ec8d1c86f44956b9ecd4376b1842cd263d54a5368aa149486d81565b600061092a8260008086815260200190815260200160002060000161155e90919063ffffffff16565b905092915050565b60018054906101000a900460ff168061094f575061094e611578565b5b806109675750600160009054906101000a900460ff16155b6109bc576040517f08c379a000000000000000000000000000000000000000000000000000000000815260040180806020018281038252602e8152602001806123c5602e913960400191505060405180910390fd5b600060018054906101000a900460ff161590508015610a0a5760018060016101000a81548160ff02191690831515021790555060018060006101000a81548160ff0219169083151502179055505b610a347f5d5c2d2522b7f6ec8d1c86f44956b9ecd4376b1842cd263d54a5368aa149486d85611589565b8260059080519060200190610a4a929190611c75565b508160069080519060200190610a61929190611c75565b506012600760006101000a81548160ff021916908360ff1602179055508015610a9f5760006001806101000a81548160ff0219169083151502179055505b50505050565b6000610ace8260008086815260200190815260200160002060000161159790919063ffffffff16565b905092915050565b6000610b027f5d5c2d2522b7f6ec8d1c86f44956b9ecd4376b1842cd263d54a5368aa149486d33610aa5565b610b0b57600080fd5b610b1582846115c7565b6001905092915050565b606060068054600181600116156101000203166002900480601f016020809104026020016040519081016040528092919081815260200182805460018160011615610100020316600290048015610bb75780601f10610b8c57610100808354040283529160200191610bb7565b820191906000526020600020905b815481529060010190602001808311610b9a57829003601f168201915b5050505050905090565b6000801b81565b6000610c8b610bd5610e32565b84610c86856040518060600160405280602581526020016124856025913960036000610bff610e32565b73ffffffffffffffffffffffffffffffffffffffff1673ffffffffffffffffffffffffffffffffffffffff16815260200190815260200160002060008a73ffffffffffffffffffffffffffffffffffffffff1673ffffffffffffffffffffffffffffffffffffffff168152602001908152602001600020546112f69092919063ffffffff16565b610e3a565b6001905092915050565b6000610ca9610ca2610e32565b8484611031565b6001905092915050565b6000610cd2600080848152602001908152602001600020600001611790565b9050919050565b610cff60008084815260200190815260200160002060020154610cfa610e32565b610aa5565b610d54576040517f08c379a00000000000000000000000000000000000000000000000000000000081526004018080602001828103825260308152602001806123956030913960400191505060405180910390fd5b610d5e8282611443565b5050565b6000600360008473ffffffffffffffffffffffffffffffffffffffff1673ffffffffffffffffffffffffffffffffffffffff16815260200190815260200160002060008373ffffffffffffffffffffffffffffffffffffffff1673ffffffffffffffffffffffffffffffffffffffff16815260200190815260200160002054905092915050565b6000610e157f5d5c2d2522b7f6ec8d1c86f44956b9ecd4376b1842cd263d54a5368aa149486d33610aa5565b610e1e57600080fd5b610e2882846117a5565b6001905092915050565b600033905090565b600073ffffffffffffffffffffffffffffffffffffffff168373ffffffffffffffffffffffffffffffffffffffff161415610ec0576040517f08c379a00000000000000000000000000000000000000000000000000000000081526004018080602001828103825260248152602001806124616024913960400191505060405180910390fd5b600073ffffffffffffffffffffffffffffffffffffffff168273ffffffffffffffffffffffffffffffffffffffff161415610f46576040517f08c379a000000000000000000000000000000000000000000000000000000000815260040180806020018281038252602281526020018061234d6022913960400191505060405180910390fd5b80600360008573ffffffffffffffffffffffffffffffffffffffff1673ffffffffffffffffffffffffffffffffffffffff16815260200190815260200160002060008473ffffffffffffffffffffffffffffffffffffffff1673ffffffffffffffffffffffffffffffffffffffff168152602001908152602001600020819055508173ffffffffffffffffffffffffffffffffffffffff168373ffffffffffffffffffffffffffffffffffffffff167f8c5be1e5ebec7d5bd14f71427d1e84f3dd0314c0f7b2291e5b200ac8c7c3b925836040518082815260200191505060405180910390a3505050565b600073ffffffffffffffffffffffffffffffffffffffff168373ffffffffffffffffffffffffffffffffffffffff1614156110b7576040517f08c379a000000000000000000000000000000000000000000000000000000000815260040180806020018281038252602581526020018061243c6025913960400191505060405180910390fd5b600073ffffffffffffffffffffffffffffffffffffffff168273ffffffffffffffffffffffffffffffffffffffff16141561113d576040517f08c379a00000000000000000000000000000000000000000000000000000000081526004018080602001828103825260238152602001806122d96023913960400191505060405180910390fd5b61114883838361196b565b6111b48160405180606001604052806026815260200161236f60269139600260008773ffffffffffffffffffffffffffffffffffffffff1673ffffffffffffffffffffffffffffffffffffffff168152602001908152602001600020546112f69092919063ffffffff16565b600260008573ffffffffffffffffffffffffffffffffffffffff1673ffffffffffffffffffffffffffffffffffffffff1681526020019081526020016000208190555061124981600260008573ffffffffffffffffffffffffffffffffffffffff1673ffffffffffffffffffffffffffffffffffffffff168152602001908152602001600020546114d690919063ffffffff16565b600260008473ffffffffffffffffffffffffffffffffffffffff1673ffffffffffffffffffffffffffffffffffffffff168152602001908152602001600020819055508173ffffffffffffffffffffffffffffffffffffffff168373ffffffffffffffffffffffffffffffffffffffff167fddf252ad1be2c89b69c2b068fc378daa952ba7f163c4a11628f55a4df523b3ef836040518082815260200191505060405180910390a3505050565b60008383111582906113a3576040517f08c379a00000000000000000000000000000000000000000000000000000000081526004018080602001828103825283818151815260200191508051906020019080838360005b8381101561136857808201518184015260208101905061134d565b50505050905090810190601f1680156113955780820380516001836020036101000a031916815260200191505b509250505060405180910390fd5b5082840390509392505050565b6113d78160008085815260200190815260200160002060000161197090919063ffffffff16565b1561143f576113e4610e32565b73ffffffffffffffffffffffffffffffffffffffff168173ffffffffffffffffffffffffffffffffffffffff16837f2f8788117e7eff1d82e926ec794901d17c78024a50270940304540a733656f0d60405160405180910390a45b5050565b61146a816000808581526020019081526020016000206000016119a090919063ffffffff16565b156114d257611477610e32565b73ffffffffffffffffffffffffffffffffffffffff168173ffffffffffffffffffffffffffffffffffffffff16837ff6391f5c32d9c69d2a47ea670b442974b53935d1edc7fd64eb21e047a839171b60405160405180910390a45b5050565b600080828401905083811015611554576040517f08c379a000000000000000000000000000000000000000000000000000000000815260040180806020018281038252601b8152602001807f536166654d6174683a206164646974696f6e206f766572666c6f77000000000081525060200191505060405180910390fd5b8091505092915050565b600061156d83600001836119d0565b60001c905092915050565b600061158330611a53565b15905090565b61159382826113b0565b5050565b60006115bf836000018373ffffffffffffffffffffffffffffffffffffffff1660001b611a66565b905092915050565b600073ffffffffffffffffffffffffffffffffffffffff168273ffffffffffffffffffffffffffffffffffffffff16141561166a576040517f08c379a000000000000000000000000000000000000000000000000000000000815260040180806020018281038252601f8152602001807f45524332303a206d696e7420746f20746865207a65726f20616464726573730081525060200191505060405180910390fd5b6116766000838361196b565b61168b816004546114d690919063ffffffff16565b6004819055506116e381600260008573ffffffffffffffffffffffffffffffffffffffff1673ffffffffffffffffffffffffffffffffffffffff168152602001908152602001600020546114d690919063ffffffff16565b600260008473ffffffffffffffffffffffffffffffffffffffff1673ffffffffffffffffffffffffffffffffffffffff168152602001908152602001600020819055508173ffffffffffffffffffffffffffffffffffffffff16600073ffffffffffffffffffffffffffffffffffffffff167fddf252ad1be2c89b69c2b068fc378daa952ba7f163c4a11628f55a4df523b3ef836040518082815260200191505060405180910390a35050565b600061179e82600001611a89565b9050919050565b600073ffffffffffffffffffffffffffffffffffffffff168273ffffffffffffffffffffffffffffffffffffffff16141561182b576040517f08c379a000000000000000000000000000000000000000000000000000000000815260040180806020018281038252602181526020018061241b6021913960400191505060405180910390fd5b6118378260008361196b565b6118a38160405180606001604052806022815260200161232b60229139600260008673ffffffffffffffffffffffffffffffffffffffff1673ffffffffffffffffffffffffffffffffffffffff168152602001908152602001600020546112f69092919063ffffffff16565b600260008473ffffffffffffffffffffffffffffffffffffffff1673ffffffffffffffffffffffffffffffffffffffff168152602001908152602001600020819055506118fb81600454611a9a90919063ffffffff16565b600481905550600073ffffffffffffffffffffffffffffffffffffffff168273ffffffffffffffffffffffffffffffffffffffff167fddf252ad1be2c89b69c2b068fc378daa952ba7f163c4a11628f55a4df523b3ef836040518082815260200191505060405180910390a35050565b505050565b6000611998836000018373ffffffffffffffffffffffffffffffffffffffff1660001b611b1d565b905092915050565b60006119c8836000018373ffffffffffffffffffffffffffffffffffffffff1660001b611b8d565b905092915050565b600081836000018054905011611a31576040517f08c379a00000000000000000000000000000000000000000000000000000000081526004018080602001828103825260228152602001806122b76022913960400191505060405180910390fd5b826000018281548110611a4057fe5b9060005260206000200154905092915050565b600080823b905060008111915050919050565b600080836001016000848152602001908152602001600020541415905092915050565b600081600001805490509050919050565b600082821115611b12576040517f08c379a000000000000000000000000000000000000000000000000000000000815260040180806020018281038252601e8152602001807f536166654d6174683a207375627472616374696f6e206f766572666c6f77000081525060200191505060405180910390fd5b818303905092915050565b6000611b298383611a66565b611b82578260000182908060018154018082558091505060019003906000526020600020016000909190919091505582600001805490508360010160008481526020019081526020016000208190555060019050611b87565b600090505b92915050565b60008083600101600084815260200190815260200160002054905060008114611c695760006001820390506000600186600001805490500390506000866000018281548110611bd857fe5b9060005260206000200154905080876000018481548110611bf557fe5b9060005260206000200181905550600183018760010160008381526020019081526020016000208190555086600001805480611c2d57fe5b60019003818190600052602060002001600090559055866001016000878152602001908152602001600020600090556001945050505050611c6f565b60009150505b92915050565b828054600181600116156101000203166002900490600052602060002090601f016020900481019282611cab5760008555611cf2565b82601f10611cc457805160ff1916838001178555611cf2565b82800160010185558215611cf2579182015b82811115611cf1578251825591602001919060010190611cd6565b5b509050611cff9190611d03565b5090565b5b80821115611d1c576000816000905550600101611d04565b5090565b6000611d33611d2e84612171565b612140565b905082815260208101848484011115611d4b57600080fd5b611d5684828561221c565b509392505050565b600081359050611d6d81612271565b92915050565b600081359050611d8281612288565b92915050565b600082601f830112611d9957600080fd5b8135611da9848260208601611d20565b91505092915050565b600081359050611dc18161229f565b92915050565b600060208284031215611dd957600080fd5b6000611de784828501611d5e565b91505092915050565b60008060408385031215611e0357600080fd5b6000611e1185828601611d5e565b9250506020611e2285828601611d5e565b9150509250929050565b600080600060608486031215611e4157600080fd5b6000611e4f86828701611d5e565b9350506020611e6086828701611d5e565b9250506040611e7186828701611db2565b9150509250925092565b600080600060608486031215611e9057600080fd5b6000611e9e86828701611d5e565b935050602084013567ffffffffffffffff811115611ebb57600080fd5b611ec786828701611d88565b925050604084013567ffffffffffffffff811115611ee457600080fd5b611ef086828701611d88565b9150509250925092565b60008060408385031215611f0d57600080fd5b6000611f1b85828601611d5e565b9250506020611f2c85828601611db2565b9150509250929050565b600060208284031215611f4857600080fd5b6000611f5684828501611d73565b91505092915050565b60008060408385031215611f7257600080fd5b6000611f8085828601611d73565b9250506020611f9185828601611d5e565b9150509250929050565b60008060408385031215611fae57600080fd5b6000611fbc85828601611d73565b9250506020611fcd85828601611db2565b9150509250929050565b60008060408385031215611fea57600080fd5b6000611ff885828601611db2565b925050602061200985828601611d5e565b9150509250929050565b61201c816121bd565b82525050565b61202b816121cf565b82525050565b61203a816121db565b82525050565b600061204b826121a1565b61205581856121ac565b935061206581856020860161222b565b61206e81612260565b840191505092915050565b61208281612205565b82525050565b6120918161220f565b82525050565b60006020820190506120ac6000830184612013565b92915050565b60006020820190506120c76000830184612022565b92915050565b60006020820190506120e26000830184612031565b92915050565b600060208201905081810360008301526121028184612040565b905092915050565b600060208201905061211f6000830184612079565b92915050565b600060208201905061213a6000830184612088565b92915050565b6000604051905081810181811067ffffffffffffffff821117156121675761216661225e565b5b8060405250919050565b600067ffffffffffffffff82111561218c5761218b61225e565b5b601f19601f8301169050602081019050919050565b600081519050919050565b600082825260208201905092915050565b60006121c8826121e5565b9050919050565b60008115159050919050565b6000819050919050565b600073ffffffffffffffffffffffffffffffffffffffff82169050919050565b6000819050919050565b600060ff82169050919050565b82818337600083830152505050565b60005b8381101561224957808201518184015260208101905061222e565b83811115612258576000848401525b50505050565bfe5b6000601f19601f8301169050919050565b61227a816121bd565b811461228557600080fd5b50565b612291816121db565b811461229c57600080fd5b50565b6122a881612205565b81146122b357600080fd5b5056fe456e756d657261626c655365743a20696e646578206f7574206f6620626f756e647345524332303a207472616e7366657220746f20746865207a65726f2061646472657373416363657373436f6e74726f6c3a2073656e646572206d75737420626520616e2061646d696e20746f206772616e7445524332303a206275726e20616d6f756e7420657863656564732062616c616e636545524332303a20617070726f766520746f20746865207a65726f206164647265737345524332303a207472616e7366657220616d6f756e7420657863656564732062616c616e6365416363657373436f6e74726f6c3a2073656e646572206d75737420626520616e2061646d696e20746f207265766f6b65496e697469616c697a61626c653a20636f6e747261637420697320616c726561647920696e697469616c697a656445524332303a207472616e7366657220616d6f756e74206578636565647320616c6c6f77616e636545524332303a206275726e2066726f6d20746865207a65726f206164647265737345524332303a207472616e736665722066726f6d20746865207a65726f206164647265737345524332303a20617070726f76652066726f6d20746865207a65726f206164647265737345524332303a2064656372656173656420616c6c6f77616e63652062656c6f77207a65726f416363657373436f6e74726f6c3a2063616e206f6e6c792072656e6f756e636520726f6c657320666f722073656c66a2646970667358221220486922e93b04c3bc93bf288727f1d02f056a9e6b45bb11aeda8e438dfb677d7b64736f6c63430007060033608060405234801561001057600080fd5b50615e5380620000216000396000f3fe608060405234801561001057600080fd5b50600436106102065760003560e01c80637de93f931161011a578063ac27f0a0116100ad578063ca15c8731161007c578063ca15c873146105d0578063d547741f14610600578063ddca3f431461061c578063f9a0e14e1461063a578063fd2c80ae1461065857610206565b8063ac27f0a01461055c578063b9ed8abf14610578578063ba8d546814610596578063bbcaac38146105b457610206565b806394a68630116100e957806394a68630146104e65780639a46760b14610504578063a217fddf14610520578063ab47c2b31461053e57610206565b80637de93f931461044a5780637e71fc7d146104685780639010d07c1461048657806391d14854146104b657610206565b8063412753581161019d5780636045fe991161016c5780636045fe99146103a457806366c33dae146103d4578063796da7af146103f05780637bbf10331461040e5780637bfe789a1461042c57610206565b8063412753581461031e5780634444f8011461033c5780634f64b2be1461035857806351b450f61461038857610206565b80632f2ff15d116101d95780632f2ff15d146102aa578063358ba773146102c657806336568abe146102e45780633ef1889b1461030057610206565b8063217a4b701461020b578063248a9ca31461022957806329075d71146102595780632a0acc6a1461028c575b600080fd5b610213610676565b6040516102209190615452565b60405180910390f35b610243600480360381019061023e9190614d9e565b61069c565b6040516102509190615629565b60405180910390f35b610273600480360381019061026e9190614f5b565b6106bb565b60405161028394939291906158b2565b60405180910390f35b610294610743565b6040516102a19190615629565b60405180910390f35b6102c460048036038101906102bf9190614dc7565b610767565b005b6102ce6107f0565b6040516102db91906156a3565b60405180910390f35b6102fe60048036038101906102f99190614dc7565b61088e565b005b610308610927565b6040516103159190615629565b60405180910390f35b61032661094b565b6040516103339190615452565b60405180910390f35b61035660048036038101906103519190614c03565b610971565b005b610372600480360381019061036d9190614f84565b611054565b60405161037f9190615452565b60405180910390f35b6103a2600480360381019061039d9190614f5b565b61108a565b005b6103be60048036038101906103b99190614e3f565b6117c9565b6040516103cb9190615845565b60405180910390f35b6103ee60048036038101906103e99190614ecd565b6117f6565b005b6103f86123dc565b604051610405919061565f565b60405180910390f35b610416612483565b6040516104239190615526565b60405180910390f35b6104346124d9565b6040516104419190615971565b60405180910390f35b6104526124ef565b60405161045f919061598c565b60405180910390f35b610470612506565b60405161047d9190615845565b60405180910390f35b6104a0600480360381019061049b9190614e03565b612526565b6040516104ad9190615452565b60405180910390f35b6104d060048036038101906104cb9190614dc7565b612557565b6040516104dd9190615526565b60405180910390f35b6104ee612588565b6040516104fb9190615629565b60405180910390f35b61051e60048036038101906105199190614e68565b6125ac565b005b610528612cae565b6040516105359190615629565b60405180910390f35b610546612cb5565b604051610553919061555c565b60405180910390f35b61057660048036038101906105719190614d0b565b612cc8565b005b610580612f91565b60405161058d9190615452565b60405180910390f35b61059e612fb7565b6040516105ab9190615845565b60405180910390f35b6105ce60048036038101906105c99190614bda565b612fd7565b005b6105ea60048036038101906105e59190614d9e565b6130be565b6040516105f79190615956565b60405180910390f35b61061a60048036038101906106159190614dc7565b6130e4565b005b61062461316d565b604051610631919061555c565b60405180910390f35b610642613180565b60405161064f9190615920565b60405180910390f35b6106606131a2565b60405161066d9190615971565b60405180910390f35b600760009054906101000a900473ffffffffffffffffffffffffffffffffffffffff1681565b6000806000838152602001908152602001600020600201549050919050565b60096020528060005260406000206000915090508060000160009054906101000a90046dffffffffffffffffffffffffffff169080600001600e9054906101000a900460ff169080600001600f9054906101000a900464ffffffffff16908060010160009054906101000a900473ffffffffffffffffffffffffffffffffffffffff16905084565b7fdf8b4c520ffe197c5343c6f5aec59570151ef9a492f2c624fd45ddde6135ec4281565b61078d600080848152602001908152602001600020600201546107886131b8565b612557565b6107e2576040517f08c379a000000000000000000000000000000000000000000000000000000000815260040180806020018281038252602f815260200180615d62602f913960400191505060405180910390fd5b6107ec82826131c0565b5050565b600b8054600181600116156101000203166002900480601f0160208091040260200160405190810160405280929190818152602001828054600181600116156101000203166002900480156108865780601f1061085b57610100808354040283529160200191610886565b820191906000526020600020905b81548152906001019060200180831161086957829003601f168201915b505050505081565b6108966131b8565b73ffffffffffffffffffffffffffffffffffffffff168173ffffffffffffffffffffffffffffffffffffffff1614610919576040517f08c379a000000000000000000000000000000000000000000000000000000000815260040180806020018281038252602f815260200180615def602f913960400191505060405180910390fd5b6109238282613253565b5050565b7fd966713f04b5544a6d58a354c8f5113232ee91f25a7851f4218a448e05d406ee81565b600660009054906101000a900473ffffffffffffffffffffffffffffffffffffffff1681565b60018054906101000a900460ff168061098e575061098d6132e6565b5b806109a65750600160009054906101000a900460ff16155b6109fb576040517f08c379a000000000000000000000000000000000000000000000000000000000815260040180806020018281038252602e815260200180615dc1602e913960400191505060405180910390fd5b600060018054906101000a900460ff161590508015610a495760018060016101000a81548160ff02191690831515021790555060018060006101000a81548160ff0219169083151502179055505b600073ffffffffffffffffffffffffffffffffffffffff168373ffffffffffffffffffffffffffffffffffffffff161415610ab9576040517f08c379a0000000000000000000000000000000000000000000000000000000008152600401610ab090615825565b60405180910390fd5b600073ffffffffffffffffffffffffffffffffffffffff168273ffffffffffffffffffffffffffffffffffffffff161415610b29576040517f08c379a0000000000000000000000000000000000000000000000000000000008152600401610b2090615805565b60405180910390fd5b600073ffffffffffffffffffffffffffffffffffffffff168b73ffffffffffffffffffffffffffffffffffffffff161415610b99576040517f08c379a0000000000000000000000000000000000000000000000000000000008152600401610b90906157c5565b60405180910390fd5b610be37fe7d07e22cc47e0674aa5610dfc0c7c09a0a3b7491679c731a125fba46498854e7fdf8b4c520ffe197c5343c6f5aec59570151ef9a492f2c624fd45ddde6135ec426132f7565b610c2d7fd966713f04b5544a6d58a354c8f5113232ee91f25a7851f4218a448e05d406ee7fdf8b4c520ffe197c5343c6f5aec59570151ef9a492f2c624fd45ddde6135ec426132f7565b610c577fe7d07e22cc47e0674aa5610dfc0c7c09a0a3b7491679c731a125fba46498854e8d613359565b610c817fdf8b4c520ffe197c5343c6f5aec59570151ef9a492f2c624fd45ddde6135ec428d613359565b610cab7fd966713f04b5544a6d58a354c8f5113232ee91f25a7851f4218a448e05d406ee84613359565b8a600c60006101000a81548173ffffffffffffffffffffffffffffffffffffffff021916908373ffffffffffffffffffffffffffffffffffffffff16021790555081600760006101000a81548173ffffffffffffffffffffffffffffffffffffffff021916908373ffffffffffffffffffffffffffffffffffffffff16021790555086600260006101000a81548163ffffffff021916908363ffffffff16021790555085600260046101000a81548163ffffffff021916908363ffffffff16021790555084600260086101000a8154816fffffffffffffffffffffffffffffffff021916908360801c021790555073__$dc3b4b0a367edd91a2d74c73e2da54c142$__63c60838cb856040518263ffffffff1660e01b8152600401610dd0919061593b565b60206040518083038186803b158015610de857600080fd5b505af4158015610dfc573d6000803e3d6000fd5b505050506040513d601f19601f82011682018060405250810190610e209190614d75565b600360006101000a8154816fffffffffffffffffffffffffffffffff021916908360801c021790555082600660006101000a81548173ffffffffffffffffffffffffffffffffffffffff021916908373ffffffffffffffffffffffffffffffffffffffff16021790555042600760146101000a81548164ffffffffff021916908364ffffffffff16021790555087600b9080519060200190610ec3929190614881565b50896004600060028110610ed357fe5b0160006101000a81548173ffffffffffffffffffffffffffffffffffffffff021916908373ffffffffffffffffffffffffffffffffffffffff160217905550886004600160028110610f2157fe5b0160006101000a81548173ffffffffffffffffffffffffffffffffffffffff021916908373ffffffffffffffffffffffffffffffffffffffff1602179055506004600160028110610f6e57fe5b0160009054906101000a900473ffffffffffffffffffffffffffffffffffffffff1673ffffffffffffffffffffffffffffffffffffffff166004600060028110610fb457fe5b0160009054906101000a900473ffffffffffffffffffffffffffffffffffffffff1673ffffffffffffffffffffffffffffffffffffffff167fbc8bd61e5dd69ff5cb8c389529c029503515ba368eaafbdaa406e072fdd36072848b60405161101d9291906154cd565b60405180910390a380156110465760006001806101000a81548160ff0219169083151502179055505b505050505050505050505050565b6004816002811061106457600080fd5b016000915054906101000a900473ffffffffffffffffffffffffffffffffffffffff1681565b600060096000836fffffffffffffffffffffffffffffffff166fffffffffffffffffffffffffffffffff1681526020019081526020016000206040518060800160405290816000820160009054906101000a90046dffffffffffffffffffffffffffff166dffffffffffffffffffffffffffff166dffffffffffffffffffffffffffff16815260200160008201600e9054906101000a900460ff16600381111561113057fe5b600381111561113b57fe5b815260200160008201600f9054906101000a900464ffffffffff1664ffffffffff1664ffffffffff1681526020016001820160009054906101000a900473ffffffffffffffffffffffffffffffffffffffff1673ffffffffffffffffffffffffffffffffffffffff1673ffffffffffffffffffffffffffffffffffffffff16815250509050806060015173ffffffffffffffffffffffffffffffffffffffff163373ffffffffffffffffffffffffffffffffffffffff1614611232576040517f08c379a0000000000000000000000000000000000000000000000000000000008152600401611229906156e5565b60405180910390fd5b600073ffffffffffffffffffffffffffffffffffffffff16816060015173ffffffffffffffffffffffffffffffffffffffff1614156112a6576040517f08c379a000000000000000000000000000000000000000000000000000000000815260040161129d90615705565b60405180910390fd5b8060000151600a6000836020015160038111156112bf57fe5b60038111156112ca57fe5b815260200190815260200160002060008282829054906101000a90046dffffffffffffffffffffffffffff160392506101000a8154816dffffffffffffffffffffffffffff02191690836dffffffffffffffffffffffffffff1602179055508060200151600381111561133957fe5b81600001516dffffffffffffffffffffffffffff16836fffffffffffffffffffffffffffffffff167f487c35d10ec275944e956f1d652e32048a7359dea185388c2f9bcb1e2db96b0b60405160405180910390a460096000836fffffffffffffffffffffffffffffffff166fffffffffffffffffffffffffffffffff168152602001908152602001600020600080820160006101000a8154906dffffffffffffffffffffffffffff021916905560008201600e6101000a81549060ff021916905560008201600f6101000a81549064ffffffffff02191690556001820160006101000a81549073ffffffffffffffffffffffffffffffffffffffff021916905550506002600381111561144857fe5b8160200151600381111561145857fe5b148061147e57506000600381111561146c57fe5b8160200151600381111561147c57fe5b145b1561157a57600760009054906101000a900473ffffffffffffffffffffffffffffffffffffffff1673ffffffffffffffffffffffffffffffffffffffff1663a9059cbb3383600001516040518363ffffffff1660e01b81526004016114e49291906154a4565b602060405180830381600087803b1580156114fe57600080fd5b505af1158015611512573d6000803e3d6000fd5b505050506040513d601f19601f820116820180604052508101906115369190614d4c565b611575576040517f08c379a000000000000000000000000000000000000000000000000000000000815260040161156c90615725565b60405180910390fd5b6117c5565b60038081111561158657fe5b8160200151600381111561159657fe5b14156116a05760046000600281106115aa57fe5b0160009054906101000a900473ffffffffffffffffffffffffffffffffffffffff1673ffffffffffffffffffffffffffffffffffffffff166394bf804d8260000151336040518363ffffffff1660e01b815260040161160a929190615889565b602060405180830381600087803b15801561162457600080fd5b505af1158015611638573d6000803e3d6000fd5b505050506040513d601f19601f8201168201806040525081019061165c9190614d4c565b61169b576040517f08c379a000000000000000000000000000000000000000000000000000000000815260040161169290615725565b60405180910390fd5b6117c4565b600160038111156116ad57fe5b816020015160038111156116bd57fe5b14156117c35760046001600281106116d157fe5b0160009054906101000a900473ffffffffffffffffffffffffffffffffffffffff1673ffffffffffffffffffffffffffffffffffffffff166394bf804d8260000151336040518363ffffffff1660e01b8152600401611731929190615889565b602060405180830381600087803b15801561174b57600080fd5b505af115801561175f573d6000803e3d6000fd5b505050506040513d601f19601f820116820180604052508101906117839190614d4c565b6117c2576040517f08c379a00000000000000000000000000000000000000000000000000000000081526004016117b990615725565b60405180910390fd5b5b5b5b5050565b600a6020528060005260406000206000915054906101000a90046dffffffffffffffffffffffffffff1681565b6118207fe7d07e22cc47e0674aa5610dfc0c7c09a0a3b7491679c731a125fba46498854e33612557565b61182957600080fd5b611831612483565b611870576040517f08c379a0000000000000000000000000000000000000000000000000000000008152600401611867906157a5565b60405180910390fd5b600073__$dc3b4b0a367edd91a2d74c73e2da54c142$__63aeb64d7d73__$dc3b4b0a367edd91a2d74c73e2da54c142$__63422051e7600260089054906101000a900460801b600160109054906101000a90046dffffffffffffffffffffffffffff166040518363ffffffff1660e01b81526004016118f0929190615600565b60206040518083038186803b15801561190857600080fd5b505af415801561191c573d6000803e3d6000fd5b505050506040513d601f19601f820116820180604052508101906119409190614d75565b6040518263ffffffff1660e01b815260040161195c9190615541565b60206040518083038186803b15801561197457600080fd5b505af4158015611988573d6000803e3d6000fd5b505050506040513d601f19601f820116820180604052508101906119ac9190614fad565b9050600073__$dc3b4b0a367edd91a2d74c73e2da54c142$__63aeb64d7d73__$dc3b4b0a367edd91a2d74c73e2da54c142$__63422051e7600260089054906101000a900460801b600160029054906101000a90046dffffffffffffffffffffffffffff166040518363ffffffff1660e01b8152600401611a2e929190615600565b60206040518083038186803b158015611a4657600080fd5b505af4158015611a5a573d6000803e3d6000fd5b505050506040513d601f19601f82011682018060405250810190611a7e9190614d75565b6040518263ffffffff1660e01b8152600401611a9a9190615541565b60206040518083038186803b158015611ab257600080fd5b505af4158015611ac6573d6000803e3d6000fd5b505050506040513d601f19601f82011682018060405250810190611aea9190614fad565b90506000816dffffffffffffffffffffffffffff16600160029054906101000a90046dffffffffffffffffffffffffffff166dffffffffffffffffffffffffffff1610611bca57611b7082600160029054906101000a90046dffffffffffffffffffffffffffff166dffffffffffffffffffffffffffff1661336790919063ffffffff16565b600160026101000a8154816dffffffffffffffffffffffffffff02191690836dffffffffffffffffffffffffffff160217905550611bc782826dffffffffffffffffffffffffffff1661340a90919063ffffffff16565b90505b826dffffffffffffffffffffffffffff16600160109054906101000a90046dffffffffffffffffffffffffffff166dffffffffffffffffffffffffffff1610611ca657611c4c83600160109054906101000a90046dffffffffffffffffffffffffffff166dffffffffffffffffffffffffffff1661336790919063ffffffff16565b600160106101000a8154816dffffffffffffffffffffffffffff02191690836dffffffffffffffffffffffffffff160217905550611ca383826dffffffffffffffffffffffffffff1661340a90919063ffffffff16565b90505b600073__$dc3b4b0a367edd91a2d74c73e2da54c142$__63202f125786886040518363ffffffff1660e01b8152600401611ce192919061567a565b60206040518083038186803b158015611cf957600080fd5b505af4158015611d0d573d6000803e3d6000fd5b505050506040513d601f19601f82011682018060405250810190611d319190614d75565b9050600073__$dc3b4b0a367edd91a2d74c73e2da54c142$__631842c9d8836f3fff000000000000000000000000000060801b6040518363ffffffff1660e01b8152600401611d81929190615577565b60206040518083038186803b158015611d9957600080fd5b505af4158015611dad573d6000803e3d6000fd5b505050506040513d601f19601f82011682018060405250810190611dd19190614f09565b9050600073__$dc3b4b0a367edd91a2d74c73e2da54c142$__63c3ff80918484600360009054906101000a900460801b6040518463ffffffff1660e01b8152600401611e1f939291906155a0565b60206040518083038186803b158015611e3757600080fd5b505af4158015611e4b573d6000803e3d6000fd5b505050506040513d601f19601f82011682018060405250810190611e6f9190614d75565b905060008260000b12158015611eb157506000600160029054906101000a90046dffffffffffffffffffffffffffff166dffffffffffffffffffffffffffff16115b1561208a57600073__$dc3b4b0a367edd91a2d74c73e2da54c142$__63f07f2ed383600160029054906101000a90046dffffffffffffffffffffffffffff166040518363ffffffff1660e01b8152600401611f0d9291906155d7565b60206040518083038186803b158015611f2557600080fd5b505af4158015611f39573d6000803e3d6000fd5b505050506040513d601f19601f82011682018060405250810190611f5d9190614fad565b9050611f9e81600160029054906101000a90046dffffffffffffffffffffffffffff166dffffffffffffffffffffffffffff1661336790919063ffffffff16565b600160026101000a8154816dffffffffffffffffffffffffffff02191690836dffffffffffffffffffffffffffff16021790555061201181600160109054906101000a90046dffffffffffffffffffffffffffff166dffffffffffffffffffffffffffff1661340a90919063ffffffff16565b600160106101000a8154816dffffffffffffffffffffffffffff02191690836dffffffffffffffffffffffffffff160217905550806dffffffffffffffffffffffffffff16888a7fb3b18fa4e3f3fc41f4de9d1e5d0831295802790e9e446387c6e926d05ebaddf960405160405180910390a45061229f565b60008260000b1280156120c957506000600160109054906101000a90046dffffffffffffffffffffffffffff166dffffffffffffffffffffffffffff16115b1561229e57600073__$dc3b4b0a367edd91a2d74c73e2da54c142$__63f07f2ed383600160109054906101000a90046dffffffffffffffffffffffffffff166040518363ffffffff1660e01b81526004016121259291906155d7565b60206040518083038186803b15801561213d57600080fd5b505af4158015612151573d6000803e3d6000fd5b505050506040513d601f19601f820116820180604052508101906121759190614fad565b90506121b681600160029054906101000a90046dffffffffffffffffffffffffffff166dffffffffffffffffffffffffffff1661340a90919063ffffffff16565b600160026101000a8154816dffffffffffffffffffffffffffff02191690836dffffffffffffffffffffffffffff16021790555061222981600160109054906101000a90046dffffffffffffffffffffffffffff166dffffffffffffffffffffffffffff1661336790919063ffffffff16565b600160106101000a8154816dffffffffffffffffffffffffffff02191690836dffffffffffffffffffffffffffff160217905550806dffffffffffffffffffffffffffff16888a7fb3b18fa4e3f3fc41f4de9d1e5d0831295802790e9e446387c6e926d05ebaddf960405160405180910390a4505b5b42600760146101000a81548164ffffffffff021916908364ffffffffff160217905550600760009054906101000a900473ffffffffffffffffffffffffffffffffffffffff1673ffffffffffffffffffffffffffffffffffffffff1663a9059cbb600660009054906101000a900473ffffffffffffffffffffffffffffffffffffffff16866040518363ffffffff1660e01b81526004016123419291906154fd565b602060405180830381600087803b15801561235b57600080fd5b505af115801561236f573d6000803e3d6000fd5b505050506040513d601f19601f820116820180604052508101906123939190614d4c565b6123d2576040517f08c379a00000000000000000000000000000000000000000000000000000000081526004016123c990615785565b60405180910390fd5b5050505050505050565b6000600c60009054906101000a900473ffffffffffffffffffffffffffffffffffffffff1673ffffffffffffffffffffffffffffffffffffffff166398d5fdca6040518163ffffffff1660e01b815260040160206040518083038186803b15801561244657600080fd5b505afa15801561245a573d6000803e3d6000fd5b505050506040513d601f19601f8201168201806040525081019061247e9190614ea4565b905090565b60006124ca600260049054906101000a900463ffffffff1663ffffffff16600760149054906101000a900464ffffffffff1664ffffffffff166134b290919063ffffffff16565b64ffffffffff16421015905090565b600260009054906101000a900463ffffffff1681565b600760149054906101000a900464ffffffffff1681565b600160109054906101000a90046dffffffffffffffffffffffffffff1681565b600061254f8260008086815260200190815260200160002060000161354890919063ffffffff16565b905092915050565b60006125808260008086815260200190815260200160002060000161356290919063ffffffff16565b905092915050565b7fe7d07e22cc47e0674aa5610dfc0c7c09a0a3b7491679c731a125fba46498854e81565b6000816dffffffffffffffffffffffffffff16116125ff576040517f08c379a00000000000000000000000000000000000000000000000000000000081526004016125f690615765565b60405180910390fd5b6126436001600860009054906101000a90046fffffffffffffffffffffffffffffffff166fffffffffffffffffffffffffffffffff1661359290919063ffffffff16565b600860006101000a8154816fffffffffffffffffffffffffffffffff02191690836fffffffffffffffffffffffffffffffff1602179055506040518060800160405280826dffffffffffffffffffffffffffff1681526020018360038111156126a857fe5b81526020014264ffffffffff1681526020013373ffffffffffffffffffffffffffffffffffffffff1681525060096000600860009054906101000a90046fffffffffffffffffffffffffffffffff166fffffffffffffffffffffffffffffffff166fffffffffffffffffffffffffffffffff16815260200190815260200160002060008201518160000160006101000a8154816dffffffffffffffffffffffffffff02191690836dffffffffffffffffffffffffffff160217905550602082015181600001600e6101000a81548160ff0219169083600381111561278857fe5b0217905550604082015181600001600f6101000a81548164ffffffffff021916908364ffffffffff16021790555060608201518160010160006101000a81548173ffffffffffffffffffffffffffffffffffffffff021916908373ffffffffffffffffffffffffffffffffffffffff16021790555090505061286681600a600085600381111561281457fe5b600381111561281f57fe5b815260200190815260200160002060009054906101000a90046dffffffffffffffffffffffffffff166dffffffffffffffffffffffffffff1661340a90919063ffffffff16565b600a600084600381111561287657fe5b600381111561288157fe5b815260200190815260200160002060006101000a8154816dffffffffffffffffffffffffffff02191690836dffffffffffffffffffffffffffff160217905550806dffffffffffffffffffffffffffff16600860009054906101000a90046fffffffffffffffffffffffffffffffff166fffffffffffffffffffffffffffffffff167f85f5090190b6b1dd154a45f8125e39dc5cd285ba717d165c2425b396dac37d25846040516129329190615644565b60405180910390a36002600381111561294757fe5b82600381111561295357fe5b148061297557506000600381111561296757fe5b82600381111561297357fe5b145b15612a6f57600760009054906101000a900473ffffffffffffffffffffffffffffffffffffffff1673ffffffffffffffffffffffffffffffffffffffff166323b872dd3330846040518463ffffffff1660e01b81526004016129d99392919061546d565b602060405180830381600087803b1580156129f357600080fd5b505af1158015612a07573d6000803e3d6000fd5b505050506040513d601f19601f82011682018060405250810190612a2b9190614d4c565b612a6a576040517f08c379a0000000000000000000000000000000000000000000000000000000008152600401612a6190615725565b60405180910390fd5b612caa565b600380811115612a7b57fe5b826003811115612a8757fe5b1415612b8d576004600060028110612a9b57fe5b0160009054906101000a900473ffffffffffffffffffffffffffffffffffffffff1673ffffffffffffffffffffffffffffffffffffffff1663fcd3533c82336040518363ffffffff1660e01b8152600401612af7929190615889565b602060405180830381600087803b158015612b1157600080fd5b505af1158015612b25573d6000803e3d6000fd5b505050506040513d601f19601f82011682018060405250810190612b499190614d4c565b612b88576040517f08c379a0000000000000000000000000000000000000000000000000000000008152600401612b7f90615725565b60405180910390fd5b612ca9565b60016003811115612b9a57fe5b826003811115612ba657fe5b1415612ca8576004600160028110612bba57fe5b0160009054906101000a900473ffffffffffffffffffffffffffffffffffffffff1673ffffffffffffffffffffffffffffffffffffffff1663fcd3533c82336040518363ffffffff1660e01b8152600401612c16929190615889565b602060405180830381600087803b158015612c3057600080fd5b505af1158015612c44573d6000803e3d6000fd5b505050506040513d601f19601f82011682018060405250810190612c689190614d4c565b612ca7576040517f08c379a0000000000000000000000000000000000000000000000000000000008152600401612c9e90615725565b60405180910390fd5b5b5b5b5050565b6000801b81565b600360009054906101000a900460801b81565b612cd061490f565b60005b8251816fffffffffffffffffffffffffffffffff161015612f8c576009600084836fffffffffffffffffffffffffffffffff1681518110612d1057fe5b60200260200101516fffffffffffffffffffffffffffffffff166fffffffffffffffffffffffffffffffff1681526020019081526020016000206040518060800160405290816000820160009054906101000a90046dffffffffffffffffffffffffffff166dffffffffffffffffffffffffffff166dffffffffffffffffffffffffffff16815260200160008201600e9054906101000a900460ff166003811115612db757fe5b6003811115612dc257fe5b815260200160008201600f9054906101000a900464ffffffffff1664ffffffffff1664ffffffffff1681526020016001820160009054906101000a900473ffffffffffffffffffffffffffffffffffffffff1673ffffffffffffffffffffffffffffffffffffffff1673ffffffffffffffffffffffffffffffffffffffff168152505091506009600084836fffffffffffffffffffffffffffffffff1681518110612e6957fe5b60200260200101516fffffffffffffffffffffffffffffffff166fffffffffffffffffffffffffffffffff168152602001908152602001600020600080820160006101000a8154906dffffffffffffffffffffffffffff021916905560008201600e6101000a81549060ff021916905560008201600f6101000a81549064ffffffffff02191690556001820160006101000a81549073ffffffffffffffffffffffffffffffffffffffff021916905550507f53e7d7eb888194c67870ec86b8523606069fb6eeeab81f458a6065b9e88defa983826fffffffffffffffffffffffffffffffff1681518110612f5957fe5b6020026020010151604051612f6e9190615920565b60405180910390a1612f7f8261363e565b8080600101915050612cd3565b505050565b600c60009054906101000a900473ffffffffffffffffffffffffffffffffffffffff1681565b600160029054906101000a90046dffffffffffffffffffffffffffff1681565b6130017fd966713f04b5544a6d58a354c8f5113232ee91f25a7851f4218a448e05d406ee33612557565b61300a57600080fd5b600073ffffffffffffffffffffffffffffffffffffffff168173ffffffffffffffffffffffffffffffffffffffff16141561307a576040517f08c379a0000000000000000000000000000000000000000000000000000000008152600401613071906156c5565b60405180910390fd5b80600660006101000a81548173ffffffffffffffffffffffffffffffffffffffff021916908373ffffffffffffffffffffffffffffffffffffffff16021790555050565b60006130dd6000808481526020019081526020016000206000016142d7565b9050919050565b61310a600080848152602001908152602001600020600201546131056131b8565b612557565b61315f576040517f08c379a0000000000000000000000000000000000000000000000000000000008152600401808060200182810382526030815260200180615d916030913960400191505060405180910390fd5b6131698282613253565b5050565b600260089054906101000a900460801b81565b600860009054906101000a90046fffffffffffffffffffffffffffffffff1681565b600260049054906101000a900463ffffffff1681565b600033905090565b6131e7816000808581526020019081526020016000206000016142ec90919063ffffffff16565b1561324f576131f46131b8565b73ffffffffffffffffffffffffffffffffffffffff168173ffffffffffffffffffffffffffffffffffffffff16837f2f8788117e7eff1d82e926ec794901d17c78024a50270940304540a733656f0d60405160405180910390a45b5050565b61327a8160008085815260200190815260200160002060000161431c90919063ffffffff16565b156132e2576132876131b8565b73ffffffffffffffffffffffffffffffffffffffff168173ffffffffffffffffffffffffffffffffffffffff16837ff6391f5c32d9c69d2a47ea670b442974b53935d1edc7fd64eb21e047a839171b60405160405180910390a45b5050565b60006132f13061434c565b15905090565b8060008084815260200190815260200160002060020154837fbd79b86ffe0ab8e8776151514217cd7cacd52c909f66475c3af44e129f0b00ff60405160405180910390a480600080848152602001908152602001600020600201819055505050565b61336382826131c0565b5050565b6000826dffffffffffffffffffffffffffff16826dffffffffffffffffffffffffffff1611156133ff576040517f08c379a000000000000000000000000000000000000000000000000000000000815260040180806020018281038252601e8152602001807f536166654d6174683a207375627472616374696f6e206f766572666c6f77000081525060200191505060405180910390fd5b818303905092915050565b6000808284019050836dffffffffffffffffffffffffffff16816dffffffffffffffffffffffffffff1610156134a8576040517f08c379a000000000000000000000000000000000000000000000000000000000815260040180806020018281038252601b8152602001807f536166654d6174683a206164646974696f6e206f766572666c6f77000000000081525060200191505060405180910390fd5b8091505092915050565b60008082840190508364ffffffffff168164ffffffffff16101561353e576040517f08c379a000000000000000000000000000000000000000000000000000000000815260040180806020018281038252601b8152602001807f536166654d6174683a206164646974696f6e206f766572666c6f77000000000081525060200191505060405180910390fd5b8091505092915050565b6000613557836000018361435f565b60001c905092915050565b600061358a836000018373ffffffffffffffffffffffffffffffffffffffff1660001b6143e2565b905092915050565b6000808284019050836fffffffffffffffffffffffffffffffff16816fffffffffffffffffffffffffffffffff161015613634576040517f08c379a000000000000000000000000000000000000000000000000000000000815260040180806020018281038252601b8152602001807f536166654d6174683a206164646974696f6e206f766572666c6f77000000000081525060200191505060405180910390fd5b8091505092915050565b600073ffffffffffffffffffffffffffffffffffffffff16816060015173ffffffffffffffffffffffffffffffffffffffff1614156136b2576040517f08c379a00000000000000000000000000000000000000000000000000000000081526004016136a990615705565b60405180910390fd5b600260009054906101000a900463ffffffff1663ffffffff166136fc8260400151600760149054906101000a900464ffffffffff1664ffffffffff1661440590919063ffffffff16565b64ffffffffff1611613743576040517f08c379a000000000000000000000000000000000000000000000000000000000815260040161373a906157e5565b60405180910390fd5b6137b18160000151600a60008460200151600381111561375f57fe5b600381111561376a57fe5b815260200190815260200160002060009054906101000a90046dffffffffffffffffffffffffffff166dffffffffffffffffffffffffffff1661336790919063ffffffff16565b600a6000836020015160038111156137c557fe5b60038111156137d057fe5b815260200190815260200160002060006101000a8154816dffffffffffffffffffffffffffff02191690836dffffffffffffffffffffffffffff1602179055506002600381111561381d57fe5b8160200151600381111561382d57fe5b1415613978576138768160000151600160109054906101000a90046dffffffffffffffffffffffffffff166dffffffffffffffffffffffffffff1661340a90919063ffffffff16565b600160106101000a8154816dffffffffffffffffffffffffffff02191690836dffffffffffffffffffffffffffff16021790555061397360046000600281106138bb57fe5b0160009054906101000a900473ffffffffffffffffffffffffffffffffffffffff1682600001516139258460000151600160109054906101000a90046dffffffffffffffffffffffffffff166dffffffffffffffffffffffffffff1661336790919063ffffffff16565b600a600060038081111561393557fe5b600381111561394057fe5b815260200190815260200160002060009054906101000a90046dffffffffffffffffffffffffffff168560600151614496565b6142d4565b60038081111561398457fe5b8160200151600381111561399457fe5b1415613d7157600073__$dc3b4b0a367edd91a2d74c73e2da54c142$__63af2f0e6973__$dc3b4b0a367edd91a2d74c73e2da54c142$__632c20a03f600160109054906101000a90046dffffffffffffffffffffffffffff16613b258760000151613b07600a6000600380811115613a0857fe5b6003811115613a1357fe5b815260200190815260200160002060009054906101000a90046dffffffffffffffffffffffffffff166004600060028110613a4a57fe5b0160009054906101000a900473ffffffffffffffffffffffffffffffffffffffff1673ffffffffffffffffffffffffffffffffffffffff166318160ddd6040518163ffffffff1660e01b815260040160206040518083038186803b158015613ab157600080fd5b505afa158015613ac5573d6000803e3d6000fd5b505050506040513d601f19601f82011682018060405250810190613ae99190614fad565b6dffffffffffffffffffffffffffff1661340a90919063ffffffff16565b6dffffffffffffffffffffffffffff1661340a90919063ffffffff16565b6040518363ffffffff1660e01b8152600401613b429291906158f7565b60206040518083038186803b158015613b5a57600080fd5b505af4158015613b6e573d6000803e3d6000fd5b505050506040513d601f19601f82011682018060405250810190613b929190614d75565b84600001516040518363ffffffff1660e01b8152600401613bb49291906155d7565b60206040518083038186803b158015613bcc57600080fd5b505af4158015613be0573d6000803e3d6000fd5b505050506040513d601f19601f82011682018060405250810190613c049190614f32565b9050613c4581600160109054906101000a90046dffffffffffffffffffffffffffff166dffffffffffffffffffffffffffff1661336790919063ffffffff16565b600160106101000a8154816dffffffffffffffffffffffffffff02191690836dffffffffffffffffffffffffffff160217905550600760009054906101000a900473ffffffffffffffffffffffffffffffffffffffff1673ffffffffffffffffffffffffffffffffffffffff1663a9059cbb8360600151836040518363ffffffff1660e01b8152600401613cda9291906154fd565b602060405180830381600087803b158015613cf457600080fd5b505af1158015613d08573d6000803e3d6000fd5b505050506040513d601f19601f82011682018060405250810190613d2c9190614d4c565b613d6b576040517f08c379a0000000000000000000000000000000000000000000000000000000008152600401613d6290615725565b60405180910390fd5b506142d3565b60006003811115613d7e57fe5b81602001516003811115613d8e57fe5b1415613eda57613dd78160000151600160029054906101000a90046dffffffffffffffffffffffffffff166dffffffffffffffffffffffffffff1661340a90919063ffffffff16565b600160026101000a8154816dffffffffffffffffffffffffffff02191690836dffffffffffffffffffffffffffff160217905550613ed56004600160028110613e1c57fe5b0160009054906101000a900473ffffffffffffffffffffffffffffffffffffffff168260000151613e868460000151600160029054906101000a90046dffffffffffffffffffffffffffff166dffffffffffffffffffffffffffff1661336790919063ffffffff16565b600a600060016003811115613e9757fe5b6003811115613ea257fe5b815260200190815260200160002060009054906101000a90046dffffffffffffffffffffffffffff168560600151614496565b6142d2565b60016003811115613ee757fe5b81602001516003811115613ef757fe5b14156142d157600073__$dc3b4b0a367edd91a2d74c73e2da54c142$__63af2f0e6973__$dc3b4b0a367edd91a2d74c73e2da54c142$__632c20a03f600160029054906101000a90046dffffffffffffffffffffffffffff16614089876000015161406b600a600060016003811115613f6c57fe5b6003811115613f7757fe5b815260200190815260200160002060009054906101000a90046dffffffffffffffffffffffffffff166004600160028110613fae57fe5b0160009054906101000a900473ffffffffffffffffffffffffffffffffffffffff1673ffffffffffffffffffffffffffffffffffffffff166318160ddd6040518163ffffffff1660e01b815260040160206040518083038186803b15801561401557600080fd5b505afa158015614029573d6000803e3d6000fd5b505050506040513d601f19601f8201168201806040525081019061404d9190614fad565b6dffffffffffffffffffffffffffff1661340a90919063ffffffff16565b6dffffffffffffffffffffffffffff1661340a90919063ffffffff16565b6040518363ffffffff1660e01b81526004016140a69291906158f7565b60206040518083038186803b1580156140be57600080fd5b505af41580156140d2573d6000803e3d6000fd5b505050506040513d601f19601f820116820180604052508101906140f69190614d75565b84600001516040518363ffffffff1660e01b81526004016141189291906155d7565b60206040518083038186803b15801561413057600080fd5b505af4158015614144573d6000803e3d6000fd5b505050506040513d601f19601f820116820180604052508101906141689190614f32565b90506141a981600160029054906101000a90046dffffffffffffffffffffffffffff166dffffffffffffffffffffffffffff1661336790919063ffffffff16565b600160026101000a8154816dffffffffffffffffffffffffffff02191690836dffffffffffffffffffffffffffff160217905550600760009054906101000a900473ffffffffffffffffffffffffffffffffffffffff1673ffffffffffffffffffffffffffffffffffffffff1663a9059cbb8360600151836040518363ffffffff1660e01b815260040161423e9291906154fd565b602060405180830381600087803b15801561425857600080fd5b505af115801561426c573d6000803e3d6000fd5b505050506040513d601f19601f820116820180604052508101906142909190614d4c565b6142cf576040517f08c379a00000000000000000000000000000000000000000000000000000000081526004016142c690615725565b60405180910390fd5b505b5b5b5b50565b60006142e582600001614718565b9050919050565b6000614314836000018373ffffffffffffffffffffffffffffffffffffffff1660001b614729565b905092915050565b6000614344836000018373ffffffffffffffffffffffffffffffffffffffff1660001b614799565b905092915050565b600080823b905060008111915050919050565b6000818360000180549050116143c0576040517f08c379a0000000000000000000000000000000000000000000000000000000008152600401808060200182810382526022815260200180615d406022913960400191505060405180910390fd5b8260000182815481106143cf57fe5b9060005260206000200154905092915050565b600080836001016000848152602001908152602001600020541415905092915050565b60008264ffffffffff168264ffffffffff16111561448b576040517f08c379a000000000000000000000000000000000000000000000000000000000815260040180806020018281038252601e8152602001807f536166654d6174683a207375627472616374696f6e206f766572666c6f77000081525060200191505060405180910390fd5b818303905092915050565b8473ffffffffffffffffffffffffffffffffffffffff166394bf804d73__$dc3b4b0a367edd91a2d74c73e2da54c142$__63af2f0e6973__$dc3b4b0a367edd91a2d74c73e2da54c142$__632c20a03f614586888c73ffffffffffffffffffffffffffffffffffffffff166318160ddd6040518163ffffffff1660e01b815260040160206040518083038186803b15801561453057600080fd5b505afa158015614544573d6000803e3d6000fd5b505050506040513d601f19601f820116820180604052508101906145689190614fad565b6dffffffffffffffffffffffffffff1661340a90919063ffffffff16565b896040518363ffffffff1660e01b81526004016145a49291906158f7565b60206040518083038186803b1580156145bc57600080fd5b505af41580156145d0573d6000803e3d6000fd5b505050506040513d601f19601f820116820180604052508101906145f49190614d75565b886040518363ffffffff1660e01b81526004016146129291906155d7565b60206040518083038186803b15801561462a57600080fd5b505af415801561463e573d6000803e3d6000fd5b505050506040513d601f19601f820116820180604052508101906146629190614f32565b836040518363ffffffff1660e01b8152600401614680929190615860565b602060405180830381600087803b15801561469a57600080fd5b505af11580156146ae573d6000803e3d6000fd5b505050506040513d601f19601f820116820180604052508101906146d29190614d4c565b614711576040517f08c379a000000000000000000000000000000000000000000000000000000000815260040161470890615745565b60405180910390fd5b5050505050565b600081600001805490509050919050565b600061473583836143e2565b61478e578260000182908060018154018082558091505060019003906000526020600020016000909190919091505582600001805490508360010160008481526020019081526020016000208190555060019050614793565b600090505b92915050565b6000808360010160008481526020019081526020016000205490506000811461487557600060018203905060006001866000018054905003905060008660000182815481106147e457fe5b906000526020600020015490508087600001848154811061480157fe5b906000526020600020018190555060018301876001016000838152602001908152602001600020819055508660000180548061483957fe5b6001900381819060005260206000200160009055905586600101600087815260200190815260200160002060009055600194505050505061487b565b60009150505b92915050565b828054600181600116156101000203166002900490600052602060002090601f0160209004810192826148b757600085556148fe565b82601f106148d057805160ff19168380011785556148fe565b828001600101855582156148fe579182015b828111156148fd5782518255916020019190600101906148e2565b5b50905061490b919061496f565b5090565b604051806080016040528060006dffffffffffffffffffffffffffff1681526020016000600381111561493e57fe5b8152602001600064ffffffffff168152602001600073ffffffffffffffffffffffffffffffffffffffff1681525090565b5b80821115614988576000816000905550600101614970565b5090565b600061499f61499a846159d8565b6159a7565b905080838252602082019050828560208602820111156149be57600080fd5b60005b858110156149ee57816149d48882614b71565b8452602084019350602083019250506001810190506149c1565b5050509392505050565b6000614a0b614a0684615a04565b6159a7565b905082815260208101848484011115614a2357600080fd5b614a2e848285615bc9565b509392505050565b600081359050614a4581615c32565b92915050565b600082601f830112614a5c57600080fd5b8135614a6c84826020860161498c565b91505092915050565b600081519050614a8481615c49565b92915050565b600081359050614a9981615c60565b92915050565b600081519050614aae81615c60565b92915050565b600081359050614ac381615c77565b92915050565b600081359050614ad881615c8e565b92915050565b600081359050614aed81615c9e565b92915050565b600081519050614b0281615c9e565b92915050565b600081519050614b1781615cb5565b92915050565b600082601f830112614b2e57600080fd5b8135614b3e8482602086016149f8565b91505092915050565b600081359050614b5681615ccc565b92915050565b600081519050614b6b81615ccc565b92915050565b600081359050614b8081615ce3565b92915050565b600081359050614b9581615cfa565b92915050565b600081359050614baa81615d11565b92915050565b600081519050614bbf81615d11565b92915050565b600081359050614bd481615d28565b92915050565b600060208284031215614bec57600080fd5b6000614bfa84828501614a36565b91505092915050565b60008060008060008060008060008060006101608c8e031215614c2557600080fd5b6000614c338e828f01614a36565b9b50506020614c448e828f01614a36565b9a50506040614c558e828f01614a36565b9950506060614c668e828f01614a36565b98505060808c013567ffffffffffffffff811115614c8357600080fd5b614c8f8e828f01614b1d565b97505060a0614ca08e828f01614bc5565b96505060c0614cb18e828f01614bc5565b95505060e0614cc28e828f01614a8a565b945050610100614cd48e828f01614b86565b935050610120614ce68e828f01614a36565b925050610140614cf88e828f01614a36565b9150509295989b509295989b9093969950565b600060208284031215614d1d57600080fd5b600082013567ffffffffffffffff811115614d3757600080fd5b614d4384828501614a4b565b91505092915050565b600060208284031215614d5e57600080fd5b6000614d6c84828501614a75565b91505092915050565b600060208284031215614d8757600080fd5b6000614d9584828501614a9f565b91505092915050565b600060208284031215614db057600080fd5b6000614dbe84828501614ab4565b91505092915050565b60008060408385031215614dda57600080fd5b6000614de885828601614ab4565b9250506020614df985828601614a36565b9150509250929050565b60008060408385031215614e1657600080fd5b6000614e2485828601614ab4565b9250506020614e3585828601614b9b565b9150509250929050565b600060208284031215614e5157600080fd5b6000614e5f84828501614ac9565b91505092915050565b60008060408385031215614e7b57600080fd5b6000614e8985828601614ac9565b9250506020614e9a85828601614b47565b9150509250929050565b600060208284031215614eb657600080fd5b6000614ec484828501614af3565b91505092915050565b60008060408385031215614ee057600080fd5b6000614eee85828601614ade565b9250506020614eff85828601614ade565b9150509250929050565b600060208284031215614f1b57600080fd5b6000614f2984828501614b08565b91505092915050565b600060208284031215614f4457600080fd5b6000614f5284828501614b5c565b91505092915050565b600060208284031215614f6d57600080fd5b6000614f7b84828501614b71565b91505092915050565b600060208284031215614f9657600080fd5b6000614fa484828501614b9b565b91505092915050565b600060208284031215614fbf57600080fd5b6000614fcd84828501614bb0565b91505092915050565b614fdf81615b5d565b82525050565b614fee81615a50565b82525050565b614ffd81615a62565b82525050565b61500c81615a6e565b82525050565b61501b81615a6e565b82525050565b61502a81615a9a565b82525050565b61503981615b6f565b82525050565b61504881615ab7565b82525050565b61505781615ab7565b82525050565b61506681615ac1565b82525050565b600061507782615a34565b6150818185615a3f565b9350615091818560208601615bd8565b61509a81615c0d565b840191505092915050565b60006150b2600f83615a3f565b91507f496e76616c6964206164647265737300000000000000000000000000000000006000830152602082019050919050565b60006150f2600c83615a3f565b91507f556e617574686f72697a656400000000000000000000000000000000000000006000830152602082019050919050565b6000615132600e83615a3f565b91507f496e76616c696420636f6d6d69740000000000000000000000000000000000006000830152602082019050919050565b6000615172600f83615a3f565b91507f5472616e73666572206661696c656400000000000000000000000000000000006000830152602082019050919050565b60006151b2600b83615a3f565b91507f4d696e74206661696c65640000000000000000000000000000000000000000006000830152602082019050919050565b60006151f2601783615a3f565b91507f416d6f756e74206d757374206e6f74206265207a65726f0000000000000000006000830152602082019050919050565b6000615232601383615a3f565b91507f466565207472616e73666572206661696c6564000000000000000000000000006000830152602082019050919050565b6000615272601d83615a3f565b91507f55706461746520696e74657276616c206861736e2774207061737365640000006000830152602082019050919050565b60006152b2602283615a3f565b91507f4f7261636c6520777261707065722063616e6e6f74206265203020616464726560008301527f73730000000000000000000000000000000000000000000000000000000000006020830152604082019050919050565b6000615318600e83615a3f565b91507f436f6d6d697420746f6f206e65770000000000000000000000000000000000006000830152602082019050919050565b6000615358601f83615a3f565b91507f51756f746520746f6b656e2063616e6e6f7420626520302061646472657373006000830152602082019050919050565b6000615398601f83615a3f565b91507f46656520616464726573732063616e6e6f7420626520302061646472657373006000830152602082019050919050565b6153d481615ace565b82525050565b6153e381615ace565b82525050565b6153f281615b81565b82525050565b61540181615b81565b82525050565b61541081615ae8565b82525050565b61541f81615bb7565b82525050565b61542e81615b32565b82525050565b61543d81615b3c565b82525050565b61544c81615b4c565b82525050565b60006020820190506154676000830184614fe5565b92915050565b60006060820190506154826000830186614fd6565b61548f6020830185614fe5565b61549c60408301846153e9565b949350505050565b60006040820190506154b96000830185614fd6565b6154c660208301846153e9565b9392505050565b60006040820190506154e26000830185614fe5565b81810360208301526154f4818461506c565b90509392505050565b60006040820190506155126000830185614fe5565b61551f60208301846153e9565b9392505050565b600060208201905061553b6000830184614ff4565b92915050565b60006020820190506155566000830184615012565b92915050565b60006020820190506155716000830184615003565b92915050565b600060408201905061558c6000830185615012565b6155996020830184615012565b9392505050565b60006060820190506155b56000830186615012565b6155c2602083018561505d565b6155cf6040830184615012565b949350505050565b60006040820190506155ec6000830185615012565b6155f960208301846153da565b9392505050565b60006040820190506156156000830185615012565b61562260208301846153f8565b9392505050565b600060208201905061563e6000830184615021565b92915050565b60006020820190506156596000830184615030565b92915050565b6000602082019050615674600083018461503f565b92915050565b600060408201905061568f600083018561504e565b61569c602083018461504e565b9392505050565b600060208201905081810360008301526156bd818461506c565b905092915050565b600060208201905081810360008301526156de816150a5565b9050919050565b600060208201905081810360008301526156fe816150e5565b9050919050565b6000602082019050818103600083015261571e81615125565b9050919050565b6000602082019050818103600083015261573e81615165565b9050919050565b6000602082019050818103600083015261575e816151a5565b9050919050565b6000602082019050818103600083015261577e816151e5565b9050919050565b6000602082019050818103600083015261579e81615225565b9050919050565b600060208201905081810360008301526157be81615265565b9050919050565b600060208201905081810360008301526157de816152a5565b9050919050565b600060208201905081810360008301526157fe8161530b565b9050919050565b6000602082019050818103600083015261581e8161534b565b9050919050565b6000602082019050818103600083015261583e8161538b565b9050919050565b600060208201905061585a60008301846153cb565b92915050565b600060408201905061587560008301856153e9565b6158826020830184614fe5565b9392505050565b600060408201905061589e60008301856153e9565b6158ab6020830184614fd6565b9392505050565b60006080820190506158c760008301876153cb565b6158d46020830186615030565b6158e16040830185615443565b6158ee6060830184614fe5565b95945050505050565b600060408201905061590c60008301856153da565b61591960208301846153da565b9392505050565b60006020820190506159356000830184615407565b92915050565b60006020820190506159506000830184615416565b92915050565b600060208201905061596b6000830184615425565b92915050565b60006020820190506159866000830184615434565b92915050565b60006020820190506159a16000830184615443565b92915050565b6000604051905081810181811067ffffffffffffffff821117156159ce576159cd615c0b565b5b8060405250919050565b600067ffffffffffffffff8211156159f3576159f2615c0b565b5b602082029050602081019050919050565b600067ffffffffffffffff821115615a1f57615a1e615c0b565b5b601f19601f8301169050602081019050919050565b600081519050919050565b600082825260208201905092915050565b6000615a5b82615b12565b9050919050565b60008115159050919050565b60007fffffffffffffffffffffffffffffffff0000000000000000000000000000000082169050919050565b6000819050919050565b6000819050615ab282615c1e565b919050565b6000819050919050565b60008160000b9050919050565b60006dffffffffffffffffffffffffffff82169050919050565b60006fffffffffffffffffffffffffffffffff82169050919050565b600061ffff82169050919050565b600073ffffffffffffffffffffffffffffffffffffffff82169050919050565b6000819050919050565b600063ffffffff82169050919050565b600064ffffffffff82169050919050565b6000615b6882615b93565b9050919050565b6000615b7a82615aa4565b9050919050565b6000615b8c82615ace565b9050919050565b6000615b9e82615ba5565b9050919050565b6000615bb082615b12565b9050919050565b6000615bc282615b04565b9050919050565b82818337600083830152505050565b60005b83811015615bf6578082015181840152602081019050615bdb565b83811115615c05576000848401525b50505050565bfe5b6000601f19601f8301169050919050565b60048110615c2f57615c2e615c0b565b5b50565b615c3b81615a50565b8114615c4657600080fd5b50565b615c5281615a62565b8114615c5d57600080fd5b50565b615c6981615a6e565b8114615c7457600080fd5b50565b615c8081615a9a565b8114615c8b57600080fd5b50565b60048110615c9b57600080fd5b50565b615ca781615ab7565b8114615cb257600080fd5b50565b615cbe81615ac1565b8114615cc957600080fd5b50565b615cd581615ace565b8114615ce057600080fd5b50565b615cec81615ae8565b8114615cf757600080fd5b50565b615d0381615b04565b8114615d0e57600080fd5b50565b615d1a81615b32565b8114615d2557600080fd5b50565b615d3181615b3c565b8114615d3c57600080fd5b5056fe456e756d657261626c655365743a20696e646578206f7574206f6620626f756e6473416363657373436f6e74726f6c3a2073656e646572206d75737420626520616e2061646d696e20746f206772616e74416363657373436f6e74726f6c3a2073656e646572206d75737420626520616e2061646d696e20746f207265766f6b65496e697469616c697a61626c653a20636f6e747261637420697320616c726561647920696e697469616c697a6564416363657373436f6e74726f6c3a2063616e206f6e6c792072656e6f756e636520726f6c657320666f722073656c66a2646970667358221220d2da175684aabe62a0be5761693c9e7fe1304026b0bd5504af857eb95f74faa964736f6c63430007060033",
  "linkReferences": {
    "contracts/implementation/PoolSwapLibrary.sol": {
      "PoolSwapLibrary": [
        {
          "length": 20,
          "start": 22667
        },
        {
          "length": 20,
          "start": 25444
        },
        {
          "length": 20,
          "start": 25470
        },
        {
          "length": 20,
          "start": 25762
        },
        {
          "length": 20,
          "start": 25788
        },
        {
          "length": 20,
          "start": 26522
        },
        {
          "length": 20,
          "start": 26663
        },
        {
          "length": 20,
          "start": 26823
        },
        {
          "length": 20,
          "start": 27050
        },
        {
          "length": 20,
          "start": 27586
        },
        {
          "length": 20,
          "start": 33934
        },
        {
          "length": 20,
          "start": 33960
        },
        {
          "length": 20,
          "start": 35313
        },
        {
          "length": 20,
          "start": 35339
        },
        {
          "length": 20,
          "start": 36772
        },
        {
          "length": 20,
          "start": 36798
        }
      ]
    }
  },
  "deployedLinkReferences": {}
}