{
  "_format": "hh-sol-artifact-1",
  "contractName": "TestOracleWrapper",
  "sourceName": "contracts/implementation/TestOracleWrapper.sol",
  "abi": [
    {
      "inputs": [
        {
          "internalType": "address",
          "name": "_oracle",
          "type": "address"
        }
      ],
      "stateMutability": "nonpayable",
      "type": "constructor"
    },
    {
      "anonymous": false,
      "inputs": [
        {
          "indexed": true,
          "internalType": "bytes32",
          "name": "role",
          "type": "bytes32"
        },
        {
          "indexed": true,
          "internalType": "bytes32",
          "name": "previousAdminRole",
          "type": "bytes32"
        },
        {
          "indexed": true,
          "internalType": "bytes32",
          "name": "newAdminRole",
          "type": "bytes32"
        }
      ],
      "name": "RoleAdminChanged",
      "type": "event"
    },
    {
      "anonymous": false,
      "inputs": [
        {
          "indexed": true,
          "internalType": "bytes32",
          "name": "role",
          "type": "bytes32"
        },
        {
          "indexed": true,
          "internalType": "address",
          "name": "account",
          "type": "address"
        },
        {
          "indexed": true,
          "internalType": "address",
          "name": "sender",
          "type": "address"
        }
      ],
      "name": "RoleGranted",
      "type": "event"
    },
    {
      "anonymous": false,
      "inputs": [
        {
          "indexed": true,
          "internalType": "bytes32",
          "name": "role",
          "type": "bytes32"
        },
        {
          "indexed": true,
          "internalType": "address",
          "name": "account",
          "type": "address"
        },
        {
          "indexed": true,
          "internalType": "address",
          "name": "sender",
          "type": "address"
        }
      ],
      "name": "RoleRevoked",
      "type": "event"
    },
    {
      "inputs": [],
      "name": "ADMIN",
      "outputs": [
        {
          "internalType": "bytes32",
          "name": "",
          "type": "bytes32"
        }
      ],
      "stateMutability": "view",
      "type": "function"
    },
    {
      "inputs": [],
      "name": "ADMIN_STRING",
      "outputs": [
        {
          "internalType": "string",
          "name": "",
          "type": "string"
        }
      ],
      "stateMutability": "view",
      "type": "function"
    },
    {
      "inputs": [],
      "name": "DEFAULT_ADMIN_ROLE",
      "outputs": [
        {
          "internalType": "bytes32",
          "name": "",
          "type": "bytes32"
        }
      ],
      "stateMutability": "view",
      "type": "function"
    },
    {
      "inputs": [],
      "name": "INITIAL_PRICE",
      "outputs": [
        {
          "internalType": "int256",
          "name": "",
          "type": "int256"
        }
      ],
      "stateMutability": "view",
      "type": "function"
    },
    {
      "inputs": [],
      "name": "OPERATOR",
      "outputs": [
        {
          "internalType": "bytes32",
          "name": "",
          "type": "bytes32"
        }
      ],
      "stateMutability": "view",
      "type": "function"
    },
    {
      "inputs": [],
      "name": "OPERATOR_STRING",
      "outputs": [
        {
          "internalType": "string",
          "name": "",
          "type": "string"
        }
      ],
      "stateMutability": "view",
      "type": "function"
    },
    {
      "inputs": [],
      "name": "PRICE_INCREMENT",
      "outputs": [
        {
          "internalType": "int256",
          "name": "",
          "type": "int256"
        }
      ],
      "stateMutability": "view",
      "type": "function"
    },
    {
      "inputs": [],
      "name": "getPrice",
      "outputs": [
        {
          "internalType": "int256",
          "name": "",
          "type": "int256"
        }
      ],
      "stateMutability": "view",
      "type": "function"
    },
    {
      "inputs": [
        {
          "internalType": "bytes32",
          "name": "role",
          "type": "bytes32"
        }
      ],
      "name": "getRoleAdmin",
      "outputs": [
        {
          "internalType": "bytes32",
          "name": "",
          "type": "bytes32"
        }
      ],
      "stateMutability": "view",
      "type": "function"
    },
    {
      "inputs": [
        {
          "internalType": "bytes32",
          "name": "role",
          "type": "bytes32"
        },
        {
          "internalType": "uint256",
          "name": "index",
          "type": "uint256"
        }
      ],
      "name": "getRoleMember",
      "outputs": [
        {
          "internalType": "address",
          "name": "",
          "type": "address"
        }
      ],
      "stateMutability": "view",
      "type": "function"
    },
    {
      "inputs": [
        {
          "internalType": "bytes32",
          "name": "role",
          "type": "bytes32"
        }
      ],
      "name": "getRoleMemberCount",
      "outputs": [
        {
          "internalType": "uint256",
          "name": "",
          "type": "uint256"
        }
      ],
      "stateMutability": "view",
      "type": "function"
    },
    {
      "inputs": [
        {
          "internalType": "bytes32",
          "name": "role",
          "type": "bytes32"
        },
        {
          "internalType": "address",
          "name": "account",
          "type": "address"
        }
      ],
      "name": "grantRole",
      "outputs": [],
      "stateMutability": "nonpayable",
      "type": "function"
    },
    {
      "inputs": [
        {
          "internalType": "bytes32",
          "name": "role",
          "type": "bytes32"
        },
        {
          "internalType": "address",
          "name": "account",
          "type": "address"
        }
      ],
      "name": "hasRole",
      "outputs": [
        {
          "internalType": "bool",
          "name": "",
          "type": "bool"
        }
      ],
      "stateMutability": "view",
      "type": "function"
    },
    {
      "inputs": [],
      "name": "incrementPrice",
      "outputs": [],
      "stateMutability": "nonpayable",
      "type": "function"
    },
    {
      "inputs": [
        {
          "internalType": "address",
          "name": "account",
          "type": "address"
        }
      ],
      "name": "isAdmin",
      "outputs": [
        {
          "internalType": "bool",
          "name": "",
          "type": "bool"
        }
      ],
      "stateMutability": "view",
      "type": "function"
    },
    {
      "inputs": [],
      "name": "oracle",
      "outputs": [
        {
          "internalType": "address",
          "name": "",
          "type": "address"
        }
      ],
      "stateMutability": "view",
      "type": "function"
    },
    {
      "inputs": [],
      "name": "price",
      "outputs": [
        {
          "internalType": "int256",
          "name": "",
          "type": "int256"
        }
      ],
      "stateMutability": "view",
      "type": "function"
    },
    {
      "inputs": [
        {
          "internalType": "bytes32",
          "name": "role",
          "type": "bytes32"
        },
        {
          "internalType": "address",
          "name": "account",
          "type": "address"
        }
      ],
      "name": "renounceRole",
      "outputs": [],
      "stateMutability": "nonpayable",
      "type": "function"
    },
    {
      "inputs": [
        {
          "internalType": "bytes32",
          "name": "role",
          "type": "bytes32"
        },
        {
          "internalType": "address",
          "name": "account",
          "type": "address"
        }
      ],
      "name": "revokeRole",
      "outputs": [],
      "stateMutability": "nonpayable",
      "type": "function"
    },
    {
      "inputs": [
        {
          "internalType": "address",
          "name": "_oracle",
          "type": "address"
        }
      ],
      "name": "setOracle",
      "outputs": [],
      "stateMutability": "nonpayable",
      "type": "function"
    },
    {
      "inputs": [
        {
          "internalType": "address",
          "name": "_admin",
          "type": "address"
        }
      ],
      "name": "switchAdmin",
      "outputs": [],
      "stateMutability": "nonpayable",
      "type": "function"
    }
  ],
  "bytecode": "0x60806040523480156200001157600080fd5b5060405162001b5c38038062001b5c8339818101604052810190620000379190620004d3565b60006040518060400160405280600581526020017f41444d494e00000000000000000000000000000000000000000000000000000081525033604051602001620000839291906200061c565b604051602081830303815290604052805190602001209050620000ad81336200010060201b60201c565b620000df7f523a704056dcd17bcf83bed8b68c59416dac1119be77755efe3bde0a64e46e0c826200011660201b60201c565b620000f0826200017860201b60201c565b6001600281905550505062000794565b6200011282826200028260201b60201c565b5050565b8060008084815260200190815260200160002060020154837fbd79b86ffe0ab8e8776151514217cd7cacd52c909f66475c3af44e129f0b00ff60405160405180910390a480600080848152602001908152602001600020600201819055505050565b62000189336200032560201b60201c565b620001cb576040517f08c379a0000000000000000000000000000000000000000000000000000000008152600401620001c29062000648565b60405180910390fd5b600073ffffffffffffffffffffffffffffffffffffffff168173ffffffffffffffffffffffffffffffffffffffff1614156200023e576040517f08c379a000000000000000000000000000000000000000000000000000000000815260040162000235906200066a565b60405180910390fd5b80600160006101000a81548173ffffffffffffffffffffffffffffffffffffffff021916908373ffffffffffffffffffffffffffffffffffffffff16021790555050565b620002b081600080858152602001908152602001600020600001620003c060201b620009c31790919060201c565b156200032157620002c6620003f860201b60201c565b73ffffffffffffffffffffffffffffffffffffffff168173ffffffffffffffffffffffffffffffffffffffff16837f2f8788117e7eff1d82e926ec794901d17c78024a50270940304540a733656f0d60405160405180910390a45b5050565b60006040518060400160405280600581526020017f41444d494e0000000000000000000000000000000000000000000000000000008152508260405160200162000371929190620005f0565b60405160208183030381529060405280519060200120620003b87f523a704056dcd17bcf83bed8b68c59416dac1119be77755efe3bde0a64e46e0c6200040060201b60201c565b149050919050565b6000620003f0836000018373ffffffffffffffffffffffffffffffffffffffff1660001b6200041f60201b60201c565b905092915050565b600033905090565b6000806000838152602001908152602001600020600201549050919050565b60006200043383836200049960201b60201c565b6200048e57826000018290806001815401808255809150506001900390600052602060002001600090919091909150558260000180549050836001016000848152602001908152602001600020819055506001905062000493565b600090505b92915050565b600080836001016000848152602001908152602001600020541415905092915050565b600081519050620004cd816200077a565b92915050565b600060208284031215620004e657600080fd5b6000620004f684828501620004bc565b91505092915050565b620005146200050e82620006c7565b62000745565b82525050565b6200052f6200052982620006b3565b62000731565b82525050565b600062000542826200068c565b6200054e8185620006a8565b935062000560818560208601620006fb565b80840191505092915050565b60006200057b60148362000697565b91507f6d73672e73656e646572206e6f742061646d696e0000000000000000000000006000830152602082019050919050565b6000620005bd601a8362000697565b91507f4f7261636c652063616e6e6f74206265203020616464726573730000000000006000830152602082019050919050565b6000620005fe828562000535565b91506200060c82846200051a565b6014820191508190509392505050565b60006200062a828562000535565b9150620006388284620004ff565b6014820191508190509392505050565b6000602082019050818103600083015262000663816200056c565b9050919050565b600060208201905081810360008301526200068581620005ae565b9050919050565b600081519050919050565b600082825260208201905092915050565b600081905092915050565b6000620006c082620006db565b9050919050565b6000620006d482620006db565b9050919050565b600073ffffffffffffffffffffffffffffffffffffffff82169050919050565b60005b838110156200071b578082015181840152602081019050620006fe565b838111156200072b576000848401525b50505050565b60006200073e8262000759565b9050919050565b6000620007528262000759565b9050919050565b600062000766826200076d565b9050919050565b60008160601b9050919050565b6200078581620006b3565b81146200079157600080fd5b50565b6113b880620007a46000396000f3fe608060405234801561001057600080fd5b50600436106101375760003560e01c80637dc0d1d0116100b8578063a035b1fe1161007c578063a035b1fe1461033e578063a217fddf1461035c578063b5bf6eb61461037a578063ca15c87314610384578063d547741f146103b4578063dc735bda146103d057610137565b80637dc0d1d0146102845780639010d07c146102a257806391d14854146102d2578063983d27371461030257806398d5fdca1461032057610137565b806336568abe116100ff57806336568abe146101f45780636d25d80214610210578063732617bb1461022e5780637adbf9731461024a5780637c5e27951461026657610137565b806306c29b4f1461013c578063248a9ca31461015a57806324d7806c1461018a5780632a0acc6a146101ba5780632f2ff15d146101d8575b600080fd5b6101446103ee565b6040516101519190611118565b60405180910390f35b610174600480360381019061016f9190610e97565b610427565b60405161018191906110e2565b60405180910390f35b6101a4600480360381019061019f9190610e6e565b610446565b6040516101b191906110c7565b60405180910390f35b6101c26104d7565b6040516101cf91906110e2565b60405180910390f35b6101f260048036038101906101ed9190610ec0565b6104fb565b005b61020e60048036038101906102099190610ec0565b610584565b005b61021861061d565b60405161022591906110fd565b60405180910390f35b61024860048036038101906102439190610e6e565b610622565b005b610264600480360381019061025f9190610e6e565b610704565b005b61026e610800565b60405161027b91906110fd565b60405180910390f35b61028c610805565b60405161029991906110ac565b60405180910390f35b6102bc60048036038101906102b79190610efc565b61082b565b6040516102c991906110ac565b60405180910390f35b6102ec60048036038101906102e79190610ec0565b61085c565b6040516102f991906110c7565b60405180910390f35b61030a61088d565b60405161031791906110e2565b60405180910390f35b6103286108b1565b60405161033591906110fd565b60405180910390f35b6103466108bb565b60405161035391906110fd565b60405180910390f35b6103646108c1565b60405161037191906110e2565b60405180910390f35b6103826108c8565b005b61039e60048036038101906103999190610e97565b6108db565b6040516103ab919061117a565b60405180910390f35b6103ce60048036038101906103c99190610ec0565b610901565b005b6103d861098a565b6040516103e59190611118565b60405180910390f35b6040518060400160405280600881526020017f4f50455241544f5200000000000000000000000000000000000000000000000081525081565b6000806000838152602001908152602001600020600201549050919050565b60006040518060400160405280600581526020017f41444d494e00000000000000000000000000000000000000000000000000000081525082604051602001610490929190611084565b604051602081830303815290604052805190602001206104cf7f523a704056dcd17bcf83bed8b68c59416dac1119be77755efe3bde0a64e46e0c610427565b149050919050565b7fdf8b4c520ffe197c5343c6f5aec59570151ef9a492f2c624fd45ddde6135ec4281565b6105216000808481526020019081526020016000206002015461051c6109f3565b61085c565b610576576040517f08c379a000000000000000000000000000000000000000000000000000000000815260040180806020018281038252602f8152602001806112f5602f913960400191505060405180910390fd5b61058082826109fb565b5050565b61058c6109f3565b73ffffffffffffffffffffffffffffffffffffffff168173ffffffffffffffffffffffffffffffffffffffff161461060f576040517f08c379a000000000000000000000000000000000000000000000000000000000815260040180806020018281038252602f815260200180611354602f913960400191505060405180910390fd5b6106198282610a8e565b5050565b600181565b61062b33610446565b61066a576040517f08c379a00000000000000000000000000000000000000000000000000000000081526004016106619061113a565b60405180910390fd5b60006040518060400160405280600581526020017f41444d494e000000000000000000000000000000000000000000000000000000815250826040516020016106b4929190611084565b6040516020818303038152906040528051906020012090506106d68183610b21565b6107007f523a704056dcd17bcf83bed8b68c59416dac1119be77755efe3bde0a64e46e0c82610b2f565b5050565b61070d33610446565b61074c576040517f08c379a00000000000000000000000000000000000000000000000000000000081526004016107439061113a565b60405180910390fd5b600073ffffffffffffffffffffffffffffffffffffffff168173ffffffffffffffffffffffffffffffffffffffff1614156107bc576040517f08c379a00000000000000000000000000000000000000000000000000000000081526004016107b39061115a565b60405180910390fd5b80600160006101000a81548173ffffffffffffffffffffffffffffffffffffffff021916908373ffffffffffffffffffffffffffffffffffffffff16021790555050565b600181565b600160009054906101000a900473ffffffffffffffffffffffffffffffffffffffff1681565b600061085482600080868152602001908152602001600020600001610b9190919063ffffffff16565b905092915050565b600061088582600080868152602001908152602001600020600001610bab90919063ffffffff16565b905092915050565b7f523a704056dcd17bcf83bed8b68c59416dac1119be77755efe3bde0a64e46e0c81565b6000600254905090565b60025481565b6000801b81565b6001600260008282540192505081905550565b60006108fa600080848152602001908152602001600020600001610bdb565b9050919050565b610927600080848152602001908152602001600020600201546109226109f3565b61085c565b61097c576040517f08c379a00000000000000000000000000000000000000000000000000000000081526004018080602001828103825260308152602001806113246030913960400191505060405180910390fd5b6109868282610a8e565b5050565b6040518060400160405280600581526020017f41444d494e00000000000000000000000000000000000000000000000000000081525081565b60006109eb836000018373ffffffffffffffffffffffffffffffffffffffff1660001b610bf0565b905092915050565b600033905090565b610a22816000808581526020019081526020016000206000016109c390919063ffffffff16565b15610a8a57610a2f6109f3565b73ffffffffffffffffffffffffffffffffffffffff168173ffffffffffffffffffffffffffffffffffffffff16837f2f8788117e7eff1d82e926ec794901d17c78024a50270940304540a733656f0d60405160405180910390a45b5050565b610ab581600080858152602001908152602001600020600001610c6090919063ffffffff16565b15610b1d57610ac26109f3565b73ffffffffffffffffffffffffffffffffffffffff168173ffffffffffffffffffffffffffffffffffffffff16837ff6391f5c32d9c69d2a47ea670b442974b53935d1edc7fd64eb21e047a839171b60405160405180910390a45b5050565b610b2b82826109fb565b5050565b8060008084815260200190815260200160002060020154837fbd79b86ffe0ab8e8776151514217cd7cacd52c909f66475c3af44e129f0b00ff60405160405180910390a480600080848152602001908152602001600020600201819055505050565b6000610ba08360000183610c90565b60001c905092915050565b6000610bd3836000018373ffffffffffffffffffffffffffffffffffffffff1660001b610d13565b905092915050565b6000610be982600001610d36565b9050919050565b6000610bfc8383610d13565b610c55578260000182908060018154018082558091505060019003906000526020600020016000909190919091505582600001805490508360010160008481526020019081526020016000208190555060019050610c5a565b600090505b92915050565b6000610c88836000018373ffffffffffffffffffffffffffffffffffffffff1660001b610d47565b905092915050565b600081836000018054905011610cf1576040517f08c379a00000000000000000000000000000000000000000000000000000000081526004018080602001828103825260228152602001806112d36022913960400191505060405180910390fd5b826000018281548110610d0057fe5b9060005260206000200154905092915050565b600080836001016000848152602001908152602001600020541415905092915050565b600081600001805490509050919050565b60008083600101600084815260200190815260200160002054905060008114610e235760006001820390506000600186600001805490500390506000866000018281548110610d9257fe5b9060005260206000200154905080876000018481548110610daf57fe5b9060005260206000200181905550600183018760010160008381526020019081526020016000208190555086600001805480610de757fe5b60019003818190600052602060002001600090559055866001016000878152602001908152602001600020600090556001945050505050610e29565b60009150505b92915050565b600081359050610e3e8161128d565b92915050565b600081359050610e53816112a4565b92915050565b600081359050610e68816112bb565b92915050565b600060208284031215610e8057600080fd5b6000610e8e84828501610e2f565b91505092915050565b600060208284031215610ea957600080fd5b6000610eb784828501610e44565b91505092915050565b60008060408385031215610ed357600080fd5b6000610ee185828601610e44565b9250506020610ef285828601610e2f565b9150509250929050565b60008060408385031215610f0f57600080fd5b6000610f1d85828601610e44565b9250506020610f2e85828601610e59565b9150509250929050565b610f41816111bc565b82525050565b610f58610f53826111bc565b61124b565b82525050565b610f67816111ce565b82525050565b610f76816111da565b82525050565b610f85816111e4565b82525050565b6000610f9682611195565b610fa081856111a0565b9350610fb0818560208601611218565b610fb98161126f565b840191505092915050565b6000610fcf82611195565b610fd981856111b1565b9350610fe9818560208601611218565b80840191505092915050565b60006110026014836111a0565b91507f6d73672e73656e646572206e6f742061646d696e0000000000000000000000006000830152602082019050919050565b6000611042601a836111a0565b91507f4f7261636c652063616e6e6f74206265203020616464726573730000000000006000830152602082019050919050565b61107e8161120e565b82525050565b60006110908285610fc4565b915061109c8284610f47565b6014820191508190509392505050565b60006020820190506110c16000830184610f38565b92915050565b60006020820190506110dc6000830184610f5e565b92915050565b60006020820190506110f76000830184610f6d565b92915050565b60006020820190506111126000830184610f7c565b92915050565b600060208201905081810360008301526111328184610f8b565b905092915050565b6000602082019050818103600083015261115381610ff5565b9050919050565b6000602082019050818103600083015261117381611035565b9050919050565b600060208201905061118f6000830184611075565b92915050565b600081519050919050565b600082825260208201905092915050565b600081905092915050565b60006111c7826111ee565b9050919050565b60008115159050919050565b6000819050919050565b6000819050919050565b600073ffffffffffffffffffffffffffffffffffffffff82169050919050565b6000819050919050565b60005b8381101561123657808201518184015260208101905061121b565b83811115611245576000848401525b50505050565b60006112568261125d565b9050919050565b600061126882611280565b9050919050565b6000601f19601f8301169050919050565b60008160601b9050919050565b611296816111bc565b81146112a157600080fd5b50565b6112ad816111da565b81146112b857600080fd5b50565b6112c48161120e565b81146112cf57600080fd5b5056fe456e756d657261626c655365743a20696e646578206f7574206f6620626f756e6473416363657373436f6e74726f6c3a2073656e646572206d75737420626520616e2061646d696e20746f206772616e74416363657373436f6e74726f6c3a2073656e646572206d75737420626520616e2061646d696e20746f207265766f6b65416363657373436f6e74726f6c3a2063616e206f6e6c792072656e6f756e636520726f6c657320666f722073656c66a2646970667358221220c338c955df75c69b1379876b42046934a90090e16691745532627eff5f53429464736f6c63430007060033",
  "linkReferences": {},
  "deployedLinkReferences": {}
}